:020000040800F2
:10000000983601200D030008951400083F140008DD
:10001000911400084D0800085B1A00080000000059
:100020000000000000000000000000004D02000879
:100030005B13000800000000A9020008E117000897
:1000400031030008310300083103000831030008C0
:1000500031030008310300083103000831030008B0
:1000600031030008310300083103000831030008A0
:100070003103000831030008310300083103000890
:100080003103000831030008310300083103000880
:10009000510800083103000831030008310300084B
:1000A0003103000831030008310300083103000860
:1000B0003103000831030008310300083103000850
:1000C0003103000831030008310300083103000840
:1000D00031030008310300085918000831030008F3
:1000E0003103000831030008310300083103000820
:1000F0003103000831030008310300083103000810
:1001000031030008310300083103000831030008FF
:1001100031030008310300083103000831030008EF
:1001200031030008310300083103000831030008DF
:1001300031030008310300083103000831030008CF
:100140009109000831030008310300083103000859
:1001500031030008310300083103000831030008AF
:10016000310300083103000831030008310300089F
:1001700031030008310300083103000800000000CB
:10018000310300083103000831030008310300087F
:10019000310300083103000831030008310300086F
:1001A00000000000000000003103000800F002F829
:1001B00000F03CF80AA090E8000C82448344AAF1C5
:1001C0000107DA4501D100F031F8AFF2090EBAE8C3
:1001D0000F0013F0010F18BFFB1A43F0010318477B
:1001E000D0660000F0660000103A24BF78C878C1DD
:1001F000FAD8520724BF30C830C144BF04680C602D
:10020000704700000023002400250026103A28BF74
:1002100078C1FBD8520728BF30C148BF0B60704778
:100220001FB506F02AF91FBD10B510BD00F072F918
:100230001146FFF7F5FF03F0BFF800F090F903B4A3
:10024000FFF7F2FF03BC00F091F900002C4B196896
:100250000868B0E8F04F80F30988BFF36F8F4FF064
:10026000000080F311887047000000000848006813
:10027000006880F308884FF0000080F3148862B6AD
:1002800061B6BFF34F8FBFF36F8F00DF00BF00BFBA
:1002900008ED00E0DFF80C00016841F47001016036
:1002A000704700BF88ED00E0EFF30980BFF36F8F68
:1002B000134B1A681EF0100F08BF20ED108A20E9BA
:1002C000F04F106009B44FF0500080F31188BFF375
:1002D0004F8FBFF36F8F04F063FD4FF0000080F38A
:1002E000118809BC19680868B0E8F04F1EF0100FBB
:1002F00008BFB0EC108A80F30988BFF36F8F704796
:1003000028000020EFF30580704700000C480168CA
:1003100041F4700101600B4880470B480047FEE73D
:10032000FEE7FEE7FEE7FEE7FEE7FEE7FEE7FEE7A5
:10033000FEE7000005480649044A064B70470000E6
:1003400088ED00E0F1170008AD01000898320120A7
:100350009836012098320120032A40F2308010F0B4
:10036000030C00F0158011F8013BBCF1020F624450
:1003700098BF11F801CB00F8013B38BF11F8013BE1
:10038000A2F1040298BF00F801CB38BF00F8013B8E
:1003900011F0030300F06280083AC0F0088051F8C1
:1003A000043B083A51F804CBA0E80810F5E7121D09
:1003B0005CBF51F8043B40F8043BAFF30080D20728
:1003C00024BF11F8013B11F801CB48BF11F8012BF4
:1003D00024BF00F8013B00F801CB48BF00F8012B17
:1003E000704702F0FF0343EA032242EA024200F0B0
:1003F00069B84FF0000200B513469446964620397E
:1004000022BFA0E80C50A0E80C50B1F12001BFF4CD
:10041000F7AF090728BFA0E80C5048BF0CC05DF833
:1004200004EB890028BF40F8042B08BF704748BF81
:1004300020F8022B11F0804F18BF00F8012B7047F5
:1004400070477047704710B500F05CF8006810BD49
:1004500010B5044600F056F8046010BD10B5203AFF
:10046000C0F00B80B1E81850203AA0E81850B1E86D
:100470001850A0E81850BFF4F5AF5FEA027C24BF23
:10048000B1E81850A0E8185044BF18C918C0BDE81A
:1004900010405FEA827C24BF51F8043B40F8043BE3
:1004A00008BF7047D20728BF31F8023B48BF11F898
:1004B000012B28BF20F8023B48BF00F8012B7047F2
:1004C0004FF000020429C0F0128010F0030C3FF43A
:1004D00092AFCCF1040CBCF1020F18BF00F8012B55
:1004E000A8BF20F8022BA1EB0C01FFF784BF5FEA45
:1004F000C17C24BF00F8012B00F8012B48BF00F895
:10050000012B704700487047343201200048704783
:10051000343201207546FFF7F9FFAE460500694603
:10052000534620F00700854618B020B5FFF702FFBC
:10053000BDE820404FF000064FF000074FF00008E4
:100540004FF0000B21F00701AC46ACE8C009ACE865
:10055000C009ACE8C009ACE8C0098D467047044644
:10056000AFF300802046FFF76AFE00000149182023
:10057000ABBEFEE7260002007047000080ED010AD6
:10058000C0ED020A80ED031A80ED0B2AC0ED0A1AB5
:10059000D1ED004AC0ED1A4AD1ED014AC0ED1B4A27
:1005A000D1ED014A91ED005A74EEC54AC0ED1C4AE6
:1005B000D1ED014A91ED005A74EE854AB0EE005A31
:1005C000C4EE855AC0ED1D5ADFED224AC0ED0C4A3B
:1005D000DFED204AC0ED0D4ADFED1E4AC0ED0E4AA8
:1005E000DFED1C4AC0ED0F4ADFED1A4AC0ED134A99
:1005F000DFED184AC0ED144ADFED164AC0ED154A8A
:10060000DFED144AC0ED164ADFED124AC0ED124A82
:10061000DFED104AC0ED174ADFED0E4AC0ED184A73
:10062000DFED0C4AC0ED194AF7EE004AC0ED074A6B
:10063000F7EE004AC0ED084AF7EE004AC0ED094A5D
:10064000C0ED202A80ED213AC0ED1E3A80ED1F4A10
:10065000704700000000000070B52DED068B0446C9
:10066000B0EE408AF0EE608A0D4694ED100A84EDFB
:10067000110A94ED040A84ED100A94ED200AD4EDD9
:10068000100A20EE200AD4ED200AB7EE001A71EE0F
:10069000600A00EE880A84ED040AC4ED058A294642
:1006A000204602F067FB94ED170A84ED120A94EDE0
:1006B000010AD4ED120A20EE200A84ED0C0AD4EDD2
:1006C000170AB0EE600A204601F066FE84ED080AC3
:1006D00094ED130AD4ED170A94ED081A00EE810A7E
:1006E00084ED130A94ED020AD4ED130A20EE200AD9
:1006F000F0EE409A94ED0B0AF0EE400AB0EE690A73
:1007000002F087FE84ED0D0A012D10D1D4ED170AF9
:1007100094ED181A70EEC10AB0EE600A9FED491A06
:10072000DFED490A02F018FE84ED140A07E094EDAB
:10073000170AD4ED180A30EE600A84ED140A94ED1D
:10074000030AD4ED140A20EE200AD4ED210AB7EEF4
:10075000001A71EE600A20EE200AD4ED210A94ED11
:10076000151A00EE810A84ED0E0A94ED0E0A84ED4E
:10077000150A012D2CD1D4ED040A94ED101A70EE57
:10078000C10AB0EE600A9FED2F1ADFED2F0A02F0CA
:10079000E3FDD4ED1E0A20EE20AAD4ED040A94ED68
:1007A000101AF0EE001A41EEC10A94ED111A70EE23
:1007B000810AB0EE600A9FED231ADFED230A02F0F2
:1007C000CBFDD4ED1F0A00EE80AA84ED0FAA1BE03A
:1007D00094ED040AD4ED100A30EE600AD4ED1E0A3E
:1007E00020EE200AD4ED040A94ED101AF0EE001A5F
:1007F00041EEC10A94ED111A70EE810A94ED1F1AB0
:1008000001EE200A84ED0F0A94ED0C0AD4ED0D0AD6
:1008100030EE200AD4ED0E0A30EE200AD4ED0F0A95
:1008200030EE209A94ED0A0AF0EE400AB0EE490A42
:1008300002F0EFFD84ED060A94ED060ABDEC068B8E
:1008400070BD0000DB0F4940DB0F49C000BFFEE771
:1008500010B50221084800F09FFA58B1022106485D
:1008600000F0C2F9054A0021034800F0B8FB034834
:1008700000F0C0FC10BD0000006400400C320120FC
:100880002DE9F0418AB004460D4616461F46DDF8B4
:1008900040800121082000F045FE0121480600F0BB
:1008A00051FE0121480600F05DFE00214FF000706E
:1008B00000F058FE0320089002208DF8240000204C
:1008C0008DF8260003208DF8250001208DF82700E3
:1008D00008A92D4800F042FD092200212A4800F015
:1008E00085FD09220121284800F080FD00208DF8B7
:1008F0001A0001208DF81B0000208DF81C008DF8D7
:100900001D008DF81E008DF81F008DF816808DF8E3
:1009100017408DF818608DF81950ADF8147005A9BE
:100920001A4800F0D2FA00208DF80E008DF80F0062
:1009300001208DF810000020ADF80400ADF806008D
:10094000ADF80800ADF80A00ADF80C0001208DF8F4
:10095000110001A800F09CF9012202210B4800F0CF
:10096000ABFA14208DF8000004208DF8010000205F
:100970008DF8020001208DF80300684600F08CFD20
:1009800000200AB0BDE8F081000C02400064004085
:1009900010B50221084800F0FFF958B102210648BD
:1009A00000F022F9054A0021034800F018FB034833
:1009B00000F020FC10BD0000006800402032012043
:1009C0002DE9F0418AB004460D4616461F46DDF873
:1009D00040800121022000F0A5FD0121880600F0E1
:1009E000B1FD0121880600F0BDFD00214FF08060BF
:1009F00000F0B8FD4FF44050089002208DF824001C
:100A000000208DF8260003208DF8250001208DF8A8
:100A1000270008A92D4800F0A1FC09220C212B4831
:100A200000F0E4FC09220D21284800F0DFFC002042
:100A30008DF81A0001208DF81B0000208DF81C0095
:100A40008DF81D008DF81E008DF81F008DF81680A2
:100A50008DF817408DF818608DF81950ADF81470A6
:100A600005A91B4800F031FA0E208DF80E00002079
:100A70008DF80F0001208DF810000020ADF8040063
:100A8000ADF80600ADF80800ADF80A00ADF80C00AE
:100A900001208DF8110001A800F0FAF801220221CE
:100AA0000B4800F009FA40208DF8000004208DF872
:100AB000010000208DF8020001208DF80300684637
:100AC00000F0EAFC00200AB0BDE8F081000402401A
:100AD00000680040F0B585B004460D4616461F4636
:100AE0004FF40070009000208DF808008DF8090088
:100AF00008208DF80A00200A8DF80B00E1B28DF86D
:100B00000C10290A8DF80D10E9B28DF80E10310A7B
:100B10008DF80F10F1B28DF81010390A8DF8111000
:100B2000F9B28DF812106946024800F0D0FA05B00B
:100B3000F0BD00000068004010B586B0044640F2E9
:100B40005520019000208DF80C008DF80D00082034
:100B50008DF80E008DF80F4001218DF81010022144
:100B60008DF8111003218DF8121004218DF8131047
:100B700005218DF8141006218DF8151007218DF828
:100B8000161001A9024800F0A2FA06B010BD00003C
:100B90000064004010B586B0044640F20330019076
:100BA00000208DF80C008DF80D0008208DF80E0047
:100BB00000208DF80F0000218DF810108DF8111015
:100BC00021128DF812108DF8134000218DF81410A9
:100BD0008DF815108DF8161001A9024800F077FA6B
:100BE00006B010BD00680040B1F5007F3AD00FDCC0
:100BF000202928D006DC01291CD004291DD0082971
:100C000040D11DE0402921D0B1F5807F3AD126E0C6
:100C1000B1F5004F31D006DCB1F5806F25D0B1F5CC
:100C2000006F2FD124E0B1F5803F12D0B1F5003F25
:100C300028D111E0154A826025E00822C26022E036
:100C40001022C2601FE0082202611CE01022026133
:100C500019E00822426016E01022426013E00422EC
:100C6000426010E0042242600DE0042242600AE08B
:100C7000002282610422426005E000228261042297
:100C8000426000E000BF00BF7047000001010100AA
:100C900010B50021837A012202FA03F13D4A12685D
:100CA00042F001023B4B1A603A4A1C3212688A43F6
:100CB000384B1C331A60027BCAB9364A0C321268B0
:100CC0008A43344B0C331A604288C38842EA034398
:100CD000304A4032847A42F834300288838842EACB
:100CE00003432C4A4032847A02EBC4025360027BF5
:100CF000012A19D1274A0C3212680A43254B0C33BA
:100D00001A604288038842EA0343224A4032847AC6
:100D100042F83430C288838842EA03431D4A403295
:100D2000847A02EBC4025360C27A3AB9194A121D9E
:100D300012688A43174B1B1D1A6006E0154A121DE4
:100D400012680A43134B1B1D1A60028932B9114AFB
:100D5000143212688A430F4B14331A600289012A35
:100D600006D10C4A143212680A430A4B14331A6033
:100D7000427B012A06D1074A1C3212680A43054BFE
:100D80001C331A60034A126822F00102014B1A60F8
:100D900010BD00000066004070B504460D460026F8
:100DA00060692840002871D0B5F5807F5CD010DCE8
:100DB000082D35D006DC012D20D0022D24D0042DA5
:100DC00072D127E0102D31D0202D35D0402D6BD1A0
:100DD00038E0B5F5004F60D009DCB5F5007F49D0AB
:100DE000B5F5806F4CD0B5F5006F5DD14FE0B5F52E
:100DF000803F2DD0B5F5003F56D12FE0A0682D499A
:100E000000F0A2FA064651E0E068032100F09CFAE7
:100E100006464BE0E068082100F096FA064645E0F9
:100E2000E068102100F090FA06463FE020690321B7
:100E300000F08AFA064639E02069082100F084FAB9
:100E4000064633E02069102100F07EFA06462DE0C8
:100E50006068082100F078FA064627E060681021F3
:100E600000F072FA064621E0A069012100F06CFA58
:100E700006461BE0A069022100F066FA064615E06E
:100E8000A069042100F060FA06460FE00FE0A069B7
:100E9000702100F059FA064608E06068042100F06D
:100EA00053FA064602E0FFE7002600BF00E00026F6
:100EB000304670BD010101001AB143690B43436123
:100EC00002E043698B434361704730B5024600201E
:100ED0000023146824F002041460146844F0010430
:100EE000146000E05B1C546804F001041CB94FF668
:100EF000FF74A342F6D1546804F001040CB9002039
:100F00006CE08C79012C04D1146844F080041460E6
:100F100003E0146824F080041460CC79012C04D11F
:100F2000146844F04004146003E0146824F04004A2
:100F300014600C7A012C04D1146844F0200414606D
:100F400003E0146824F0200414604C7A012C04D1CE
:100F5000146844F01004146003E0146824F01004D2
:100F600014608C7A012C04D1146844F008041460D5
:100F700003E0146824F008041460CC7A012C04D136
:100F8000146844F00404146003E0146824F00404BA
:100F900014608C78A407CD7844EA05640D7944EA9E
:100FA00005444D7944EA05540D886D1E2C43D461E7
:100FB000146824F001041460002300E05B1C5468F2
:100FC00004F001041CB14FF6FF74A342F6D154683B
:100FD00004F001040CB1002000E0012030BD10B588
:100FE00000F5D87303EB01131B6803F004031372BD
:100FF000137A53B900F5D87303EB01131B6840F261
:10100000FF7404EA5353136009E000F5D87303EB4F
:1010100001131B686FF0604404EAD303536000F5CA
:10102000D87303EB01131B6803F00203537200F53E
:10103000D87303EB01135B6803F00F03937200F5A1
:10104000D87303EB01135B681B0AD37400F5D873E4
:1010500003EB01139B68D37200F5D87303EB011304
:101060009B681C0A147300F5D87303EB01139B688B
:101070001C0C547300F5D87303EB01139B681B0E13
:10108000937300F5D87303EB0113DB68D37300F59A
:10109000D87303EB0113DB681C0A147400F5D873D2
:1010A00003EB0113DB681C0C547400F5D87303EBDD
:1010B0000113DB681B0E937421B9C36843F020034E
:1010C000C36003E0036943F02003036110BD10B562
:1010D00002460020936803F08063B3F1806F00D173
:1010E00010E0936803F00063B3F1006F01D10120B9
:1010F00008E0936803F08053B3F1805F01D10220D0
:1011000000E00420042874D002F5C07303EB001340
:101110001B6803F0010402F5C07303EB00131C60AD
:101120000B7A7BB94B7A0C8843EA445302F5C074BE
:1011300004EB00142468234302F5C07404EB00148C
:10114000236010E00B7A4C6843EAC4034C7A2343D3
:1011500002F5C07404EB00142468234302F5C07444
:1011600004EB001423608B7A03F00F038B7202F5FB
:10117000C07303EB00135B6823F00F0402F5C07328
:1011800003EB00135C6002F5C07303EB00135B68B4
:101190008C7A234302F5C07404EB001463608B7BEC
:1011A0001C064B7B44EA03440B7B44EA0323CC7AC2
:1011B000234302F5C07404EB0014A3608B7C1C066F
:1011C0004B7C44EA03440B7C44EA0323CC7B23435B
:1011D00002F5C07404EB0014E36002F5C07303EB86
:1011E00000131B6843F0010402F5C07303EB001306
:1011F0001C6010BD10B5044640F202222068811A1E
:1012000090424ED007DC08280CD0A0F2FF1070B13D
:1012100002287CD144E0012944D0022943D050293E
:10122000F7D120E02146424802F00EF87DE0A17C93
:10123000607C41EA00203F49088008460078C0F3FE
:10124000C0003D4908703B480078C0F380004870FA
:1012500038480078C0F3400088703648007800F0C5
:101260000100C87061E0207BE17A40EA012000B211
:101270003249C881A17B607B41EA002000B22F493E
:101280000882217CE07B41EA002000B22B49888162
:10129000A17C607C41EA002000B22849488244E0F9
:1012A00000BF00BF00BF2078401E254908700846D7
:1012B000007800EB8000234931F8100000B220498B
:1012C000097801EB81011F4A02EB41010881207B73
:1012D000E17A40EA01201A49097801EB810122F8FC
:1012E0001100A17B607B41EA002000B2144909781B
:1012F00001EB810102EB41014880217CE07B41EA66
:10130000002000B20E49097801EB810100E00BE0FA
:1013100002EB41018880607C0949097801EB810179
:1013200002EB4101887100E000BF00BF10BD00006A
:10133000003201200401002000010020EC310120D6
:101340000C010020C43101200246002002EA010302
:101350000BB1012000E0002070477047F0B50A464D
:1013600000210023002400BF3DE0012505FA01F320
:10137000156805EA03049C4234D105684F00032632
:10138000BE40B543056015794E00B540066835434B
:1013900005601579012D02D01579022D16D18568C9
:1013A0004F000326BE40B543856055794E00B540D9
:1013B000866835438560456801268E40B5434560A3
:1013C000456896798E40B6B235434560C5684F0092
:1013D0000326BE40B543C560D5794E00B540C6680A
:1013E0003543C560491C1029BFD3F0BDF0B50023BB
:1013F00000244D07ED0E02FA05F3CE1000F1200592
:1014000055F826504E07F70E0F26BE40B543CF10B5
:1014100000F1200646F82750CE1000F1200555F8BF
:10142000265045EA0304CE1000F1200545F8264079
:10143000F0BD0183704742694A404261704700BF76
:10144000FEE7000002F094FD0F4908601AE00E4824
:101450000068B0F853000D4908800846008832281B
:1014600008DB08460088782804DC08460088FFF777
:1014700091FB02E03220FFF78DFB01F059FF322093
:1014800003F046FBE3E70000B4000020AC000020BE
:1014900000BFFEE77047000070B5002100230F2257
:1014A000C4781CB3174C246804F4E064C4F5E06409
:1014B000C4F30721C1F10404E3B20A4144789C401B
:1014C000E1B28478144021430C07210E0E4C0578BC
:1014D0006155047804F01F050124AC4005786D11B6
:1014E000AD0005F1E025C5F8004109E0047804F0FD
:1014F0001F050124AC40054D0678761145F82640BD
:1015000070BD00000CED00E000E400E080E100E0D0
:1015100002490143024A1160704700000000FA05C9
:101520000CED00E029B1064A12680243044B1A6030
:1015300004E0034A12688243014B1A6070470000BE
:101540003038024029B1064A12680243044B1A603F
:1015500004E0034A12688243014B1A60704700009E
:101560004038024029B1064A12680243044B1A600F
:1015700004E0034A12688243014B1A60704700007E
:1015800020380240F0B50021002200240225002668
:101590000223324F3F6807F00C0121B1042905D026
:1015A000082937D105E02E4F076036E02D4F076040
:1015B00033E02A4F3F1F3F68C7F38056274F3F1F36
:1015C0003F6807F03F036EB1264FB7FBF3F7DFF834
:1015D0008CC0ACF1040CDCF800C0CCF3881C07FB19
:1015E0000CF40CE01E4FB7FBF3F7DFF870C0ACF162
:1015F000040CDCF800C0CCF3881C07FB0CF4174F7C
:101600003F1F3F68C7F301477F1C7D00B4FBF5F720
:10161000076002E0124F076000BF00BF0F4F3F6836
:1016200007F0F0010909104F7A5C0768D74047605E
:101630000A4F3F6807F4E051890A0B4F7A5C47680C
:10164000D7408760054F3F6807F46041490B064F5C
:101650007A5C4768D740C760F0BD00000838024098
:101660000024F400001BB700140000200CB500207B
:10167000019000904148006840F480303F49086084
:1016800000BF3E48006800F4003000900198401C04
:101690000190009818B90198B0F5A04FF1D13748E2
:1016A000006800F4003010B10120009001E000203B
:1016B00000900098012860D130484030006840F028
:1016C00080502E49403108602D48006840F4404069
:1016D0002B4908602948083000682849083108600B
:1016E0000846006840F4004008600846006840F47E
:1016F000A05008602348091F0860081F006840F0D8
:101700008070091F086000BF1C48006800F000706E
:101710000028F9D01A48006840F480301849086061
:1017200000BF1748406800F480300028F9D0144802
:10173000006840F400301249086000BF104840685B
:1017400000F400300028F9D040F205700E4908601E
:101750000A480830006820F0030008490831086092
:101760000846006840F00200086000BF03480830E7
:10177000006800F00C000828F8D10CBD00380240C9
:1017800000700040062D4008003C02401CB5054892
:10179000012100234A02CDE9001003A1054803F00E
:1017A000E5FE1CBD9C00002073746172745F74615F
:1017B000736B000099410008042808D14FF0E02124
:1017C000096941F004014FF0E022116107E04FF098
:1017D000E021096921F004014FF0E0221161704716
:1017E00010B503F0F3FE012801D003F0E1FB10BDBA
:1017F00010B51548006840F470001349086013489C
:10180000006840F001001149086000200F490831CC
:1018100008600E4800680E4908400C4908600D48F1
:10182000091D0860081F006820F48020091F086057
:10183000002006490C310860FFF718FF4FF00060E8
:1018400001498039086010BD88ED00E00038024091
:10185000FFFFF6FE1030002410B540F225510A4873
:1018600000F038F870B1084800F0EEF80749087049
:101870000846007801F0AAFA01F002FB034800785C
:1018800001F010FB10BD000000440040D400002017
:1018900001F40072B2F5007F00D100BFCA4302809C
:1018A000704721B1828942F40052828104E082892A
:1018B0004DF6FF731A408281704702460020B1F551
:1018C000007F00D100BF13880B400BB1012000E066
:1018D0000020704770B50246002400230025002038
:1018E00040F66A16B14200D100BFC1F3421501F0C3
:1018F0001F03012606FA03F3012D02D19689334016
:1019000006E0022D02D1168A334001E0968A334068
:101910000C12012606FA04F41688344013B10CB1F7
:10192000012000E0002070BDF0B503460024002631
:101930000025002040F66A17B94200D100BF1846C2
:10194000C1F3421401F01F06012707FA06F5012C26
:1019500001D10C3004E0022C01D1103000E0143031
:101960001AB107682F43076002E00768AF430760BA
:10197000F0BD00002DE9FF4705460E460024A146B4
:1019800000BFA046B08900B100BF2C8A24F44054A7
:10199000F08804432C82AC8941F20C608443B08807
:1019A00031890843718908430443AC81AC8A24F42B
:1019B0004074B0890443AC826846FFF7E3FD2048D9
:1019C000854202D01F48854202D1DDF80C9001E02B
:1019D000DDF80890A88900F4004040B109EBC90087
:1019E00000EB091031684900B0FBF1F707E009EBA3
:1019F000C90000EB091031688900B0FBF1F76420E1
:101A0000B7FBF0F004012009642101FB1078A889DC
:101A100000F4004040B1322000EBC800B0FBF1F010
:101A200000F00700044308E0322000EB08106421B6
:101A3000B0FBF1F000F00F0004432C81BDE8FF87FC
:101A4000001001400014014001468888C0F30800DE
:101A50007047C1F308028280704700BFFEE703B4FD
:101A600001984100009850EAC12018BF04204A0D97
:101A700018BF40F0010040F2FF72B2EB515F08BFA7
:101A800040F00200012808BF052002B070472DED8C
:101A9000020B019820F0004001909DED000B02B078
:101AA000704700000000000010B52F499FED2C1B6F
:101AB0002DED020B84B0059820F000408842DCBF79
:101AC00000209DED040B32DD2849884209D104989D
:101AD00040B94FF00100FEF7BBFC00F03DFC06B042
:101AE00010BD05DB9DED040B00F02AFC06B010BD17
:101AF00068469DED040B00F03BF810F0030011D098
:101B0000012818D09DED021B9DED000B02281AD074
:101B100000F04AFA51EC100B03F0B2FF06B041ECB2
:101B2000100B10BD9DED021B9DED000B012000F080
:101B30006FFB06B010BD9DED021B9DED000B00F08C
:101B400033FA06B010BD012000F062FB51EC100B1F
:101B500003F096FF06B041EC100B10BD0000000032
:101B60000000000000000000FB21E93F0000F07FC2
:101B70002DE9F14F04462DED020B2DED088B8AB0B7
:101B80009FEDE70B80ED020B139EE74826F0004522
:101B900085420ADC9DED120B002084ED000B0AB09B
:101BA000BDEC088B03B0BDE8F08FE0489FEDE0ABE3
:101BB0009FEDE1BBA84247DDE14F9FEDE39B9FED29
:101BC000E48B9DED120B53EC1A2B51EC100B002EF5
:101BD0001CDD04F0F7FA41EC100BBD4208D053ECC9
:101BE0001B2B51EC100B04F0EDFAC4E900010BE0E3
:101BF00053EC192B51EC100B04F0E4FA53EC182BB6
:101C000004F0E0FAC4E900010120C8E703F076FF20
:101C100041EC100BBD4208D053EC1B2B51EC100BC8
:101C200003F06CFFC4E900010BE053EC192B51ECFD
:101C3000100B03F063FF53EC182B03F05FFFC4E9B4
:101C400000014FF0FF30AAE7C348A84279DB9DEDC1
:101C5000120B51EC100B01F0A3FA41EC180B9FEDA5
:101C6000C00B53EC102B04F0A3F99FEDBF1B53ECFA
:101C7000112B03F043FF04F041F9074604F06DF91E
:101C800041EC190B53EC1A2B04F092F953EC182B7E
:101C900004F08CFA41EC180B53EC1B2B51EC190B94
:101CA00004F086F9DFF8C8A241EC100B4FEA155892
:101CB0000125FA4453EC102B51EC180B04F082FA76
:101CC000032DC4E900013DD0C1F30A5005EB4511D5
:101CD000A8EB00001139814234DA0AEB051BB0EEA3
:101CE00048AA9BED000BF0EE68AA53EC102B51ECC8
:101CF000190B04F05DF941EC1B0B51EC1A0B53EC82
:101D00001B2B04F05FFA41EC180B51EC1A0B53EC4F
:101D1000182B04F057FA53EC1B2B04F053FA9BEDED
:101D2000020B41EC1A0B53EC102B51EC190B04F085
:101D30003FF953EC1A2B04F045FA41EC100B6D1CE3
:101D4000B8E70EE0002EA8BF3846BFF628AF94EDE6
:101D5000000B51EC100B03F093FEC4E90001784234
:101D60001DE7C6F3130040F4801EC6F30A50A0F22C
:101D7000F530471100F01F05C5F12000DDF848B02F
:101D800008900020069007900520EC467949002D28
:101D900007EB0002794408BF51F8221009D051F82E
:101DA000223001EB8201AB404A68089922FA01F126
:101DB0001943A1FB0E26A1FB0B131A449A4234BF10
:101DC0000123002303EB06080CEB8003D3E901A6F3
:101DD0000E448E4234BF0121002192448A4411B145
:101DE000924502D903E0924501D2012100E0002191
:101DF000C3E901A641444CF82010011EA0F10100E6
:101E0000C4DC029800F10050850F0298DDE90367F9
:101E10008000DDF8148004F0A0F841EC1A0B304685
:101E200004F0B2F89FED541B53EC112B04F0C0F8F2
:101E300041EC1B0B384604F0A7F89FED511B53EC07
:101E4000112B04F0B5F841EC180B404604F09CF857
:101E50009FED4D1B53EC112B04F0AAF841EC190B2C
:101E600051EC180B53EC192B03F048FE53EC1B2BD1
:101E700003F044FE53EC1A2B03F040FECDE90801B9
:101E8000002008909DED080B53EC1A2B51EC100B21
:101E900004F098F953EC1B2B04F094F953EC182B35
:101EA00004F090F953EC192B04F080F99FED381BE6
:101EB00053EC112B04F07CF89FED370B41EC180B21
:101EC00053EC102B9DED080B51EC100B04F070F847
:101ED00053EC182B03F012FE9FED310B41EC180B65
:101EE00053EC102B9DED080B51EC100B04F060F837
:101EF00053EC182B03F002FE41EC100B139810F07A
:101F0000004F06D06D4251EC100B03F0B9FD41ECCF
:101F1000100B284684ED000B41E600000000000095
:101F20000000000000000000FB21E93F7CD90240D6
:101F300000004054FB21F93F3163621A61B4D03D87
:101F4000FB21F93F000000000000601A61B4D03DA1
:101F50007370032E8A19A33BFB2139410000000056
:101F600083C8C96D305FE43F000000000000E03F1F
:101F70000A4B0000584A0000000000000000103E1C
:101F8000000000000000103C000000000000103ABB
:101F9000182D4454FB21F93D3326A611460B113C64
:101FA00000000054FB21F93D10B52DED040B2DED83
:101FB000088B82B0B0EE419AF0EE619A0B9820F057
:101FC00000449FED4BABB4F1795F11DA9DED0A0B44
:101FD00051EC100B03F092FF002801BFB0EE4A0A4B
:101FE000F0EE6A0A02B0BDEC088B04BF04B010BD6D
:101FF0009DED0A0B53EC102B51EC100B03F0D8FFA6
:1020000041EC180B3C480621B0EE480AF0EE680A95
:10201000784400F081F853EC182B51EC100B03F0CE
:10202000C7FF9DED0A0B41EC1B0B53EC192B51EC38
:10203000100B03F0BDFF41EC190B53EC1B2B51ECC3
:10204000180B03F0B5FF53EC192B04F0BBF89FED10
:102050002C0B41EC190B53EC102B51EC180B03F02B
:10206000A7FF41EC100B2848844210DA53EC192BDF
:1020700051EC100B04F0A6F853EC1A2B04F096F870
:1020800041EC100B02B0BDEC088B04B010BD1F4832
:10209000A042BCBF9FED1E1B8DED001B06DBA4F50F
:1020A00000100190002000909DED001B51EC100BE2
:1020B00053EC112B04F086F89DED000B41EC180B4E
:1020C00053EC102B51EC1A0B04F07CF841EC1A0B7A
:1020D00053EC192B51EC180B04F074F853EC1A2B39
:1020E00004F064F841EC100BCCE7000000000000A5
:1020F000000000000000F03F7C47000000000000EE
:10210000000000000000E03F3333D33F0000E93F10
:10211000000000000000D23F70B504462DED028B98
:102120004D1E00EBC500B0EE408AF0EE608A90EDE7
:10213000000B35F0060017D053EC182B51EC100BA8
:1021400003F036FF41EC100B6D1E04EBC50090ED63
:10215000001B51EC100B53EC112B03F0CFFC41ECA6
:10216000100B35F00600E7D1022D36D0042D1CD01F
:10217000062D1CBFBDEC028B70BD53EC182B51EC2F
:10218000100B03F015FF94ED0A1B53EC112B03F019
:10219000B5FC53EC182B03F00BFF94ED081B53EC2C
:1021A000112B03F0ABFC41EC100B53EC182B51EC52
:1021B000100B03F0FDFE94ED061B53EC112B03F006
:1021C0009DFC53EC182B03F0F3FE94ED040B53EC41
:1021D000102B03F093FC41EC100B53EC182B51EC3B
:1021E000100B03F0E5FE94ED021B53EC112B03F0F2
:1021F00085FC53EC182B03F0DBFE94ED001B53EC35
:10220000112B03F07BFCBDEC028B41EC100B70BD7D
:1022100031B504462DED040B2DED0A8BB0EE41BA1D
:10222000F0EE61BA0B989DED0A0B20F00040B0F182
:10223000795F0DDA51EC100BFFF711FC042808BF91
:1022400000F09AF89DED0A0BBDEC0A8B05B030BD8D
:1022500053EC102B51EC100B03F0AAFE41EC180BC1
:102260009DED0A0B53EC182B51EC100B03F0A0FE64
:1022700041EC190B2C48B0EE480AF0EE680A052133
:102280007844FFF749FF9FED2ACBB0EE40AAF0EE6D
:1022900060AA9CB353EC1C2B51EC190B03F088FE85
:1022A00041EC1C0B53EC1A2B51EC190B03F080FE84
:1022B0009FED210B41EC190B53EC102B51EC1B0B38
:1022C00003F076FE53EC192B03F07CFF53EC182B34
:1022D00003F06EFE53EC1B2B03F074FF53EC1C2B2E
:1022E00003F070FF9DED0A1B53EC112B03F05EFF12
:1022F000BDEC0A8B05B041EC100B30BDFFE753EC91
:102300001A2B51EC180B03F053FE53EC1C2B03F06B
:10231000F5FB53EC192B03F04BFE9DED0A1B53EC20
:10232000112B03F0EBFBE3E7044600000000000084
:10233000495555555555C5BF000000000000E03F08
:1023400010B553EC102B51EC100B03F0D7FB41EC04
:10235000100B10BD000000009FED050B10B553ECF5
:10236000102B51EC100B03F071FC41EC100B10BD65
:1023700000000000000000009FED050B10B553ECBD
:10238000102B51EC100B03F013FE41EC100B10BDA1
:10239000000000000000001010B52DED0A8B04466F
:1023A000B0EE40AAB0EE4A0A01F026F8D4ED1B0ABE
:1023B000B4EEE00AF1EE10FA02DBBFEE008A1DE097
:1023C000B0EE4A0A01F018F8D4ED1A0AB4EEE00AA9
:1023D000F1EE10FA02D8B7EE008A0FE0B0EE4A0A2A
:1023E00001F00AF8D4ED1D0A30EEC00AF0EE000A42
:1023F00020EE200AD4ED1C0A80EE208A9FED150AFB
:1024000028EE000AF0EE000A80EE209A19EE100A7B
:1024100003F0C2FF41EC1C0BB0EE4C0AF0EE6C0A6C
:10242000FFF742FBB0EE40BAF0EE60BA51EC1B0B86
:1024300003F032FB08EE900AB7EE000A38EE800A8D
:10244000F0EE000AC0EE209AB0EE690ABDEC0A8BED
:1024500010BD0000DB0F494070B504460D46052154
:10246000204600F01DF82946204600F001F870BD16
:1024700070B505460C4600260DB1022C00D870BD83
:10248000A11E06480288284600F0A6FE0646A01EA9
:102490002E54310A601E295400BFF0E7FC000020D2
:1024A00070B505460C4600260DB1022C00D870BD53
:1024B000611EFF22284600F0A9FE0646601E2E542B
:1024C00000BFF4E730B52DED088B85B004469FEDD5
:1024D000700AB0EE408A9FED6E0AB0EE409A9FED12
:1024E0006C0AF0EE408A0020019002900390049064
:1024F0000025D4ED1F1AB0EE611AD4ED1E1AF0EECD
:10250000610AD4ED1D1AB0EE610A01A800F018FAB4
:10251000207904280FD100BF07E0002104F1080052
:1025200000EB05108181681CC5B2042DF5DB05B0F8
:10253000BDEC088B30BD002530E001A800EB850024
:1025400090ED000A04F1080000EB051080ED020A8E
:1025500004F1080000EB051090ED020A10EE101ACD
:10256000084603F019FF41EC1B0BB0EE4B0AF0EEEE
:102570006B0AFFF78CFAB0EE40AAF0EE60AA51ECBD
:102580001A0B03F089FA08EE900AB4EEE88AF1EE2D
:1025900010FA01D2B0EE688A681CC5B2042DCCDBFB
:1025A000B1EE040AB4EEC08AF1EE10FA19DDB1EE14
:1025B000040AC0EE080AB0EE609A00250FE004F1AC
:1025C000080000EB051090ED020A20EE090A04F164
:1025D000080000EB051080ED020A681CC5B2042D4E
:1025E000EDDB94ED031AF0EE410A94ED041AB0EE1F
:1025F000410A00212748FEF72FF894ED071AF0EE64
:10260000410A94ED081AB0EE410A00212248FEF773
:1026100023F894ED0B1AF0EE410A94ED0C1AB0EE8B
:10262000410A00211D48FEF717F894ED0F1AF0EE4D
:10263000410A94ED101AB0EE410A00211848FEF745
:102640000BF8144890ED060ABDEEC00A10EE100A11
:1026500001B2A182104890ED060ABDEEC00A10EE4C
:10266000100A01B2A1840D4890ED060ABDEEC00A21
:1026700010EE100A01B2A186094890ED060ABDEEDF
:10268000C00A10EE100A01B2A4F8441000BF4EE7D1
:1026900000000000E82E0120702F0120F82F0120FB
:1026A0008030012070B5044604B970BD00F0F8FD1B
:1026B00044490860002500BF16E004F1080000EB63
:1026C00005100068B0F9020000EE100AB8EEC00A6A
:1026D000DFED3D0A20EE200A04F1080000EB0510B2
:1026E00080ED010A681CC5B2042DE6DB2068807C01
:1026F000207194ED030AB1EE400AD4ED070A30EEE2
:10270000200AD4ED0B0A30EE200AD4ED0F0A30EE89
:10271000600AF5EE000A20EE200A84ED1A0A94ED14
:10272000030AB1EE400AD4ED070A30EE600AD4ED98
:102730000B0A30EE200AD4ED0F0A30EE200AF5EE37
:10274000000A20EE200A84ED1B0A94ED030AB1EE84
:10275000400AD4ED070A30EE600AD4ED0B0A30EEE1
:10276000600AD4ED0F0A30EE600AF5EE000A20EEA2
:10277000200ADFED160A80EE201A84ED1C1A20686C
:10278000B0F90E1047F6FF70B1EE040A00F0E0FA5F
:1027900084ED1D0A2068B0F9101047F6FF70B1EE05
:1027A000000A00F0D5FA84ED1E0A2068B0F90C107A
:1027B00047F6FF70B1EE080A00F0CAFA84ED1F0A6E
:1027C00000BF72E7C00000200A01DA39CDCC4C3ED0
:1027D00070B5044604B970BD9FED3F4ADFED3E3A47
:1027E0009FED3E3ADFED3C2A3D499FED3E2ADFED6D
:1027F0003E1AB2EE041AF2EE0E0A9FED3C0A3C4875
:10280000FDF7BCFE9FED344ADFED333A9FED333ADE
:10281000DFED312A32499FED332ADFED331AB2EE74
:10282000041AF2EE0E0A9FED310A3248FDF7A6FEB9
:102830009FED294ADFED283A9FED283ADFED262A61
:1028400027499FED282ADFED281AB2EE041AF2EE8E
:102850000E0A9FED260A2848FDF790FE9FED1E4ABE
:10286000DFED1D3A9FED1D3ADFED1B2A1C499FED60
:102870001D2ADFED1D1AB2EE041AF2EE0E0A9FEDCC
:102880001B0A1E48FDF77AFE0420207100F0A0FC10
:102890002060002509E0284600F0CAFC04F1080188
:1028A00001EB05110860681CC5B2042DF3DBB1EE25
:1028B000040A84ED230AB9EE040A84ED240AB1EE79
:1028C000000A84ED250AB9EE000A84ED260A2046A6
:1028D000FFF7E8FE00BF7EE7000000009A99193F6D
:1028E000B80000200000FA4400401C4600606A4620
:1028F000E82E0120702F0120F82F012080300120C8
:1029000040F2651002F004F90C48FFF761FF13E094
:102910000A48FFF7C7FE0948FFF7D4FD074CB4F992
:102920004430B4F93420B4F92410B4F91400FEF79B
:10293000D1F8022002F0ECF8EAE70000402E012076
:10294000F1EE401A71EEE01A9FED102A42EE011AE4
:10295000C0ED001A70EE601A9FED0C2A42EE011ACB
:10296000C0ED011A70EE201A9FED082A42EE011AFE
:10297000C0ED021AF1EE401A71EEA01A9FED032A83
:1029800042EE011AC0ED031A70470000CDCC4CBED8
:1029900030B58BB004460D460820ADF81A0030481B
:1029A00000788DF81C002E480078401C2C490870D7
:1029B00000208DF81D0040F20130ADF81E004FF4EC
:1029C0008070ADF82000ADF82240ADF82450022010
:1029D0008DF8260000208DF82700ADF82800A520EE
:1029E0008DF8040002220DF11A010DF1050000F02E
:1029F00039F89DF81C008DF8070002220DF11E0128
:102A00000DF1090000F02EF8022208A90DF10B00CB
:102A100000F028F802220DF122010DF10D0000F066
:102A200021F8022209A90DF10F0000F01BF8012284
:102A30000DF126010DF1110000F014F801220DF145
:102A400027010DF1120000F00DF8112101A8FFF788
:102A500003FD112101A801F089FB0BB030BD00007E
:102A6000FA00002010B50346002002E00C5C1C5464
:102A7000401C9042FADB10BD10B5034600200AE06E
:102A8000032802DA0C5C1C5404E0032802DB441C1B
:102A90000C5D1C54401C9042F2DB10BD01F068FA42
:102AA0009F49086000F000FC9E49086000F0F8FBB8
:102AB0009D4908609A48006890F83B009B4908804F
:102AC0000846008800F5807099490880084601880A
:102AD00096480088FFF75CFF01F0AAFB1FE19048D1
:102AE000006890F83B00914908800846008800F58E
:102AF00080708F4908808A480068B0F84F10884875
:102B00000068B0F86400081A8A49088084480068A0
:102B1000B0F8431082480068B0F86000081A86498F
:102B200008807F480068B0F88300844908807C48AA
:102B3000006890F8550000F00100814908707D4858
:102B40000088642806DB7F48007800F0FE007D499D
:102B5000087005E07B48007840F001007949087072
:102B600075480088142806DD7648007800F0FD00DE
:102B70007449087005E07348007840F0020071491C
:102B8000087067480068B0F845000F2804D0122884
:102B90000CD01E2822D115E06A48007800F0F3001E
:102BA0006849087008460078087023E06548007896
:102BB00000F0F300634908700846007840F0040014
:102BC000087017E05F48007800F0F3005D49087076
:102BD0000846007840F0080008700BE0594800787B
:102BE00000F0F300574908700846007840F00C00E8
:102BF000087000BF00BF4A480068B0F851000A28BA
:102C000002D0102816D109E04E48007800F0EF00FD
:102C10004C49087008460078087017E04948007869
:102C200000F0EF00474908700846007840F01000B7
:102C300008700BE04348007800F0F3004149087049
:102C40000846007840F00C00087000BF00BF37480D
:102C50000088012806D13B48007800F0DF003949A0
:102C6000087009E031480088652805D135480078AA
:102C700040F02000334908703048008830B93148AE
:102C8000007800F0BF002F49087005E02D4800785B
:102C900040F040002B4908702948007830B9294895
:102CA000007800F07F002749087005E0254800788B
:102CB00040F080002349087022480078FDF73CFF6F
:102CC0002148008864280EDB01F05EFC164800688D
:102CD000D0ED010AB0EE600A012001F079FB00207E
:102CE0001949088004E018480088801C16490880AB
:102CF00016480088B0F5FA6F05DB01F099FA00205C
:102D00001249088004E011480088801C0F4908809F
:102D10000E48008801F030F9022001F0F9FEDEE6ED
:102D2000D8000020E0000020DC000020F20000209D
:102D3000F4000020E6000020EA000020F600002059
:102D4000F8000020E4000020EE000020F000002049
:102D5000F0EE400A01EE101AB8EEC11A60EE811AC8
:102D600001EE100AB8EEC11A81EE812AB0EE420AD5
:102D70007047000070B504460D4694ED180A84EDC6
:102D8000190A94ED170A84ED180A012D10D1D4ED1B
:102D9000040A94ED051A70EEC10AB0EE600A9FEDC8
:102DA000091ADFED090A00F0D7FA84ED170A07E0E7
:102DB00094ED040AD4ED050A30EE600A84ED170A9A
:102DC00070BD0000DB0F4940DB0F49C0274909787F
:102DD000274A117025490978052943D2DFE801F017
:102DE000030C18263300A52805D101211F4A1170B4
:102DF0000521204A118036E01F4909881D4A1288A2
:102E0000914204D10221194A11701A4A11802AE014
:102E100019490988174A1288914206D10321134A99
:102E2000117016494988134A11801CE0124909881B
:102E3000104A1288914205D104210C4A11700221D6
:102E40000C4A11800FE00C4909880A4A1288914205
:102E500007D1A52805D10121044A11700521054A91
:102E6000118000E000BF00BF70470000C8000020D4
:102E7000C9000020C6000020C4000020CA000020B5
:102E80000548007805490978884203D000200449A4
:102E90000880704700BFFCE7C9000020C800002080
:102EA000C400002010B504462948007800B910BDC0
:102EB0002848008828490988884209DA274825498E
:102EC0000988445423480088401C2249088000E0B7
:102ED000EDE72048008820490988884236D11C48FF
:102EE0000078012806D0022817D003281ED0042815
:102EF0002AD120E01948007819490870174840780D
:102F00001649897840EA0120154948801348C0785D
:102F1000087112480079487117E0104800780F498D
:102F2000497840EA01200F4908800EE00D480088EA
:102F300000F01CF809E0094840780849097840EA9F
:102F400001200949088000E000BF00BF00BFAEE7D4
:102F5000C8000020C4000020C60000200831012065
:102F6000CA000020D0000020D200002010B5044686
:102F700040F20121601A8C424FD016DC40F2011160
:102F8000A4EB01008C4230D008DC012C16D0022CBE
:102F900019D0032C1DD0042C76D120E001282AD092
:102FA00003282ED004286FD131E009286CD2DFE845
:102FB00000F06B3A40464C52585E6500032134489D
:102FC00001F034FF61E0012131480C3001F02EFFA7
:102FD0005BE020212E480D3001F028FF55E0032151
:102FE0002B482D3001F022FF4FE0042128483030DB
:102FF00001F01CFF49E004212548343001F016FFA0
:1030000043E002212248383001F010FF3DE0012169
:103010001F483A3001F00AFF37E01B211C483B30C3
:1030200001F004FF31E010211948563001F0FEFE96
:103030002BE010211648663001F0F8FE25E0012152
:103040001348763001F0F2FE1FE00221104877307D
:1030500001F0ECFE19E001210D48793001F0E6FEA7
:1030600013E007210A487A3001F0E0FE0DE0062166
:103070000748813001F0DAFE07E005E0042104484A
:10308000873001F0D3FE00E000BF00BF10BD00009C
:103090002831012070B504460420FEF78DFB0C4852
:1030A000047025464FF47A70454301200949088091
:1030B0004FF0E020006940F002004FF0E02108618D
:1030C00008464561006940F00100086170BD0000DC
:1030D00024000020260000200FB470B592B00446F2
:1030E0000D4616461520ADF826002C4800788DF8C0
:1030F00028002A480078401C2849087000208DF8D4
:10310000290040F20130ADF82A00ADF82C40ADF8AE
:103110002E50ADF8306019A80FC8CDE90F23CDE9C6
:103120000D010020ADF84400A5208DF80400022216
:103130000DF126010DF10500FFF794FC9DF8280024
:103140008DF8070002220DF12A010DF10900FFF7A9
:1031500089FC02220BA90DF10B00FFF783FC022270
:103160000DF12E010DF10D00FFF77CFC02220CA9E0
:103170000DF10F00FFF776FC0F220DA90DF11100E4
:10318000FFF77AFC1E2101A8FFF766F91E2101A8AE
:1031900000F0ECFF12B070BC5DF814FBFA000020E8
:1031A00082B0CDE9000121F0004001909DED000BBF
:1031B00002B051EC100B704710B504464FF480700C
:1031C00040FA04F10148FEF734F910BD001802403E
:1031D00000487047EC31012030B5034613B94FF673
:1031E000FF7030BD09E013F8014B82EA0400C0B261
:1031F000054D35F8100080EA22220800A1F10101F6
:10320000F1D11046EDE700009065000830B50346A7
:1032100005E013F8010B80EA02040448025D08008F
:10322000A1F10101F5D1104630BD00008F64000806
:10323000014601F0030000EB8000024A02EB40006F
:1032400070470000C431012010B50A46002105E096
:1032500002F10B035B5C114C6354491C0429F7DB3E
:103260000E4991ED000A80ED000A002106E002F10E
:103270000B030C1D1B5D094C6354491C0429F6DB30
:10328000064991ED000A80ED010A90ED000AD0EDAB
:10329000010A20EE200A80ED020A10BD080100207C
:1032A00000487047003201200048704700010020AC
:1032B0001CB501217020FEF735F94FF480400090D5
:1032C00001208DF8040000208DF8060003208DF801
:1032D000050001208DF8070069460D48FEF73EF80D
:1032E0004FF40060009069460A48FEF737F800F096
:1032F00015F800F027F84FF4FF7000906946064873
:10330000FEF72CF84FF4FF70FFF756FF1CBD0000CE
:1033100000140240001002400018024010B54FF4A3
:1033200080410248FEF785F810BD000000140240FD
:1033300010B54FF480410248FEF77DF810BD000043
:103340000014024010B54FF400610248FEF771F816
:1033500010BD000000100240B4EEE01AF1EE10FAC9
:1033600000D27047B4EEC10AF1EE10FA0EDD31EE74
:10337000602AF0EE421A03E030EE612AB0EE420A13
:10338000B4EEC10AF1EE10FAF6DC13E0B4EEE00A96
:10339000F1EE10FA0ED231EE602AF0EE421A03E09E
:1033A00030EE212AB0EE420AB4EEE00AF1EE10FA55
:1033B000F6D300BF00BFD4E708B54FF44070FEF766
:1033C000A7F8B420FFF766FEFFF772FF01F082F85E
:1033D000002005231A4601210090FDF751FA002034
:1033E00005231A4601210090FDF7EAFAFEF7CEF90F
:1033F00001F084FC00BFFEE7F0EE400AF5EEC00AE3
:10340000F1EE10FA02D2B1EE600A7047B0EE600A37
:10341000FBE7B0EE401AB4EEE01AF1EE10FA02DD6E
:10342000B0EE600A7047B1EE600AB4EEC01AF1EE79
:1034300010FA02D2B1EE600AF4E7B0EE410AF1E709
:103440002DE9F04105460E461C4807681C480068F7
:10345000001D01F0F5F950B91948006890F82C10DA
:103460000120884017490968814316480160681C9B
:1034700038B936B112480168091D134801F01EFA27
:103480001AE07C190E4800684460BC4207D20C4820
:103490000168091D0D48006801F0F6F90CE00848C4
:1034A0000168091D0A48006801F0EEF90948006842
:1034B000844201D207480460BDE8F0813C0000204E
:1034C00028000020400000200402002030000020DE
:1034D0002C0000205800002010B5044601F0FAF935
:1034E00024480068401C234908602348006840B90C
:1034F000214804600846006801280DD100F0D6F983
:103500000AE01E48006838B91B480068C06AE16AD2
:10351000884201D81848046019480068401C1849BE
:10352000086008460068206494F82C100120884048
:1035300014490968084313490860E16A01EB8101F5
:10354000114A02EB8100211D01F0B8F901F0ECF9FC
:103550000A48006868B108480068C06AE16A8842A1
:1035600007D24FF0805009490860BFF34F8FBFF377
:103570006F8F10BD3800002028000020440000207C
:1035800054000020400000205001002004ED00E025
:1035900010B501F09FF910480068D0B90F4801F04C
:1035A00063F90F4801F060F90C480E4908600C48B7
:1035B0000D49086000220C210A2001F013FD064984
:1035C00008600846006820B108A10348006801F0BF
:1035D00063FA01F0A9F910BD6C0000201802002068
:1035E0002C0200206400002068000020546D7251FD
:1035F0000000000010B516E001F06CF90C48C0683E
:10360000C468201D01F01CF90A480068401E0949E1
:10361000086009480068401E0749086001F084F905
:10362000204600F05FF8044800680028E4D110BD8F
:10363000F0010020380000203400002070B504465E
:103640000D46206C70B1216CE0680144E160D4E962
:103650000210884201D32168E1602846226CE168AB
:10366000FCF77AFE70BD2DE9F04104460F46154681
:103670004FF00008A66B206C48B9206800282CD1B8
:10368000A06802F05DF880460020A06025E07DB9CA
:103690003946226C6068FCF75FFE216C6068084464
:1036A0006060D4E90101884217D32068606014E0AB
:1036B0003946226CE068FCF74FFE216CE068411A45
:1036C000E1602168E068884203D2216CA068411A59
:1036D000E160022D01D106B1761E701CA063404648
:1036E000BDE8F08110B50446206B01F03BF920469F
:1036F00001F038F910BD00000146084A126812684E
:103700000AB9012200E000220A600A6822B9034ACD
:103710001268D268106800E0002070476400002042
:1037200030B54FF49633174800F007042CB1C01D94
:1037300020F00700134C041B1B1B0246124C226096
:103740000024114D6C60D018083820F007000F4C91
:10375000206000240D4D2D686C600C4D2D682C6090
:103760001146441A4C60094C24680C60084D4C68A2
:103770002C60084D4C682C604FF00044064D2C60C6
:1037800030BD000040020020840000208C0000209A
:1037900094000020900000209800002000BFFFF758
:1037A00029FF064800680128F9D94FF080500449E4
:1037B0000860BFF34F8FBFF36F8FF0E75001002019
:1037C00004ED00E02DE9F04106460D461746984607
:1037D000069C0DB9246000E02760E66325640121A2
:1037E000204601F02DFC84F84C80BDE8F0812DE9E5
:1037F000F05F82460E4690469B460A9F0C9C4FEA1D
:103800008801A522206BFCF7ECFDA8F10100216BDB
:1038100001EB800929F0070909F0070008B9012028
:1038200000E0002050B900BF502080F31188BFF3A2
:103830004F8FBFF36F8F00BF00BFFEE786B100253B
:1038400007E0715D04F134004155705D00B902E09C
:103850006D1C0A2DF5D300BF00213D20015502E06B
:10386000002084F83400052F00D30427E762A76402
:103870000020E064201D01F004F804F1180001F0BC
:1038800000F82461C7F10500A06164620020206592
:1038900084F854005A465146484600F053FB2060D5
:1038A0000B9808B10B980460BDE8F09F10B5002498
:1038B00007E004EB84010F4A02EB810000F0D4FF23
:1038C000641C052CF5D30C4800F0CEFF0B4800F02B
:1038D000CBFF0B4800F0C8FF0A4800F0C5FF0A48BC
:1038E00000F0C2FF0448094908600448084908601C
:1038F00010BD000050010020B4010020C8010020CC
:10390000DC010020F0010020040200202C00002037
:103910003000002010B50146164800E0006803683A
:103920008B42FBD30246436813448B4204D1436865
:103930004C682344436001460A464B6813440468BC
:10394000A34211D10C4C03682468A34208D04B68F1
:103950000468646823444B6003681B680B6005E0DF
:10396000054B1B680B6001E003680B60884200D0C8
:10397000016010BD840000208C0000202DE9F04182
:1039800004460D4616461F464FF000086560246148
:10399000B5420CD8F01BA169884202D34FF0010850
:1039A00011E0211D0948006800F06EFF0BE0BE42E7
:1039B00004D2BD4202D34FF0010804E0211D0448A7
:1039C000006800F061FF4046BDE8F081680000201B
:1039D0006400002070B5054600F07CFFA86B08B9B4
:1039E000012400E0002400F09FFF204670BD70B568
:1039F000054600F06FFFA86BE96B884201D10124F6
:103A000000E0002400F090FF204670BDF8B50546A8
:103A10000F461A480068C068C468201D00F010FFF7
:103A200094F8280000F00400E8B1A06941192B4681
:103A30003A462046FFF7A2FFD8B1002003462A46A7
:103A400001460090204601F0D9FF064656B900BF56
:103A5000502080F31188BFF34F8FBFF36F8F00BFEB
:103A600000BFFEE705E094F8280020F0010084F88C
:103A700028002046216A8847F8BD00006400002025
:103A800070B586B08BE003980028FBDB059C60696D
:103A900008B9012000E0002010B9201D00F0D0FE80
:103AA00002A800F0DDF8054603980A2875D2DFE881
:103AB00000F009050739416306083A4200BF00BF1C
:103AC00000BF00BF94F8280040F0010084F82800EF
:103AD0000498A269811803462A462046FFF74EFF44
:103AE000F8B12046216A884794F8280000F00400C5
:103AF000B8B1002000900498A1694218002319462B
:103B0000204601F07BFF064656B900BF502080F3E7
:103B10001188BFF34F8FBFF36F8F00BF00BFFEE769
:103B200000BF3BE000BF94F8280020F0010084F8BB
:103B3000280033E000BF94F8280040F0010084F82A
:103B400028000498A061A06908B1012000E00020CD
:103B500050B900BF502080F31188BFF34F8FBFF3DF
:103B60006F8F00BF00BFFEE7A06941192B462A46B0
:103B70002046FFF703FF11E094F8280000F0020050
:103B800018B9204600F0EEFE05E094F8280020F079
:103B9000010084F8280001E0FFE700BF00BF002219
:103BA00003A90448006801F0E7FB00287FF46BAF2D
:103BB00006B070BD6C000020F8B505460C4601F05B
:103BC000E7F8684600F04CF80646009820BB44B978
:103BD000B54206D801F064FE31462846FFF716FFCD
:103BE0001CE03CB10E480068006808B9012000E004
:103BF00000200446A91B22460A48006800F062FF24
:103C000001F04EFE50B94FF0805007490860BFF3F5
:103C10004F8FBFF36F8F01E001F042FEF8BD00004F
:103C2000680000206C00002004ED00E00A490968EB
:103C3000096809B9012100E0002121B14FF0FF31ED
:103C4000064A116006E004490968C968C868034A61
:103C500041681160704700002C00002058000020CF
:103C600070B5044601F0C2FC05460748006885426D
:103C700004D200F00BF80120206001E00020206059
:103C800001480560284670BD740000202DE9F84306
:103C900034E025480068C068056823480068C068AB
:103CA000C468201D00F0CCFD2046216A884794F8A6
:103CB000280000F0040008B3A0694619AE4207D9F5
:103CC00066602461211D1848006800F0DDFD15E0E4
:103CD000002003462A4601460090204601F08EFE51
:103CE000074657B900BF502080F31188BFF34F8FAC
:103CF000BFF36F8F00BF00BFFEE700BF0A48006838
:103D0000006808B9012000E000200028C1D0064862
:103D1000D0F8008005480068034908600348C0F8EF
:103D20000080BDE8F88300006400002068000020E7
:103D30000E480068401C08B9012000E0002050B97E
:103D400000BF502080F31188BFF34F8FBFF36F8FF8
:103D500000BF00BFFEE700BF502080F31188BFF313
:103D60004F8FBFF36F8F00BF00BFFEE778000020CA
:103D700008B500BF6846FFF7BFFC0446204600991F
:103D8000FFF71AFFFFF77CFEF4E770B5044600F07A
:103D9000A1FD94F9455010E0606A08B9012000E0E7
:103DA000002038B904F1240001F02EFD18B100F014
:103DB00063FF00E003E0681E45B2002DECDC00BFAD
:103DC000FF2084F8450000F0AFFD00F083FD94F97A
:103DD000445010E0206908B9012000E0002048B9F3
:103DE00004F1100001F010FD08B100F045FF681E5D
:103DF00045B200E001E0002DECDC00BFFF2084F8BC
:103E0000440000F091FD70BD2DE9F04104464FF0F3
:103E1000000800F0BDFF4648006808B9FFF780FCC5
:103E200044480068204000286BD1D4B1083404F025
:103E30000700B0B104F00700C0F10800044404F02A
:103E4000070008B9012000E0002050B900BF502051
:103E500080F31188BFF34F8FBFF36F8F00BF00BF98
:103E6000FEE7002C4DD034480068844249D8334ED8
:103E70003046056801E02E462D686868A04202D2EF
:103E800028680028F7D12A480068854239D0306870
:103E900000F10808286830606868001B102819D9EC
:103EA0002F1907F0070008B9012000E0002050B9E1
:103EB00000BF502080F31188BFF34F8FBFF36F8F87
:103EC00000BF00BFFEE76868001B78606C60384682
:103ED000FFF720FD184968680968081A1649086044
:103EE0000846006816490968884203D212480068EB
:103EF000134908600F496868096808436860002032
:103F0000286001F0CDFC08F0070008B9012000E0AE
:103F1000002050B900BF502080F31188BFF34F8FAD
:103F2000BFF36F8F00BF00BFFEE74046BDE8F081E2
:103F30008C000020980000209000002084000020C9
:103F400094000020001F4FF080730360001F21F0D9
:103F500001030360001F054B036014380260001F5B
:103F60006FF002030360203870470000313D000805
:103F7000004870472831012010B588B00446002160
:103F8000059861F3963005900598C0F316000590EA
:103F900007986FF3090014300790059820F0070088
:103FA000401C0590059820F038000590059820F4F5
:103FB000707000F5A0700590059820F4705000F521
:103FC000E050059006986FF30900C01C0690642C21
:103FD00008D0C82C35D0B4F5967F5FD0B4F5FA7F01
:103FE0007ED18CE035208DF8100030208DF8110046
:103FF00031208DF812000798C0F3140000F18740BB
:1040000007900698C0F3140000F1874006904FF423
:104010003E71069861F3942006904FF491610798E1
:1040200061F39420079005A807C88DE807004D4864
:1040300002884D48018840F20110049BFFF74CF8BC
:104040008DE035208DF8100030208DF811003220E1
:104050008DF812000798C0F3140000F18740079014
:104060000698C0F3140000F1A05006904FF4707150
:10407000069861F394200690079861F394200790C6
:1040800005A807C88DE80700364802883648018829
:1040900040F20110049BFFF71FF860E035208DF817
:1040A000100031208DF8110030208DF81200079893
:1040B000C0F3140000F1755007900698C0F3140087
:1040C00000F1755006904FF46B71069861F39420DF
:1040D00006904FF47571079861F39420079000E003
:1040E0003CE005A807C88DE807001E4802881E4866
:1040F000018840F20110049BFEF7EEFF2FE035200F
:104100008DF8100033208DF8110030208DF812004A
:104110000798C0F3140000F1525007900698C0F3BE
:10412000140000F1525006904FF46B71069861F341
:10413000942006904FF47571079861F394200790CE
:1041400005A807C88DE807000648028806480188C8
:1041500040F20110049BFEF7BFFF00E000BF00BF6C
:1041600008B010BDF4000020F200002070B5054634
:104170000E4600240BE0295D0648FDF76AFC00BFEF
:1041800040210448FDF799FB0128F9D1641CB44291
:10419000F1DB70BD004400401CB5044600F09AFB02
:1041A0001348142100234FF40072CDE9001011A12F
:1041B000124801F0DBF91248122100234FF400727B
:1041C000CDE900100FA1124801F0D0F911481321D8
:1041D00000234FF40072CDE900100FA1124801F046
:1041E000C5F91248006800F0C1FC00F09DFB1CBD41
:1041F000A00000204C45445461736B004514000836
:10420000A4000020436861737369735461736B0089
:1042100001290008A8000020646174615F636F7267
:10422000655F7461736B00009D2A00089C0000208C
:104230000EB53020634908703120487032208870F4
:104240000846406820F00700401C48600846406867
:1042500020F0380048600846406820F4707000F58F
:10426000107048600846406820F4705000F5806087
:10427000486000215348406861F3963051494860D6
:1042800008464068C0F316004860084680686FF32F
:104290000900401D886040F23A214A48806861F375
:1042A00094204849886008468068C0F314008860FC
:1042B0000846C0686FF309001430C86040F29E21C0
:1042C0004048C06861F394203E49C8600846C06811
:1042D000C0F3140000F1A050C8600A46D2E90110F2
:1042E000D268CDE901020091364803683648028859
:1042F0003648018840F20110FEF7EEFE30203149C9
:10430000087031204870342088700846406820F0DA
:104310000700401C48600846406820F038004860AC
:104320000846406820F4707000F510704860084638
:10433000406820F4705000F58060486000212148FA
:10434000406861F396301F49486008464068C0F3F2
:1043500016004860084680686FF30900401D8860B9
:1043600040F246511748806861F3942015498860EF
:1043700008468068C0F3140088600846C0686FF380
:1043800009001430C86040F2E2410E48C06861F391
:1043900094200C49C8600846C068C0F3140000F1BE
:1043A000A050C8600A46121D07CA8DE807000548DC
:1043B0000368054802880548018840F20110FEF7AD
:1043C0008BFE0EBDB4310120F4000020F20000206D
:1043D00010B52DED028B88B0B0EE408A04469FEDFB
:1043E000390A28EE000ABDEEC00A8DED030A6320EB
:1043F0008DF8100061208DF8110070208DF81200EA
:104400003148007850B9059820F00700401C05900D
:104410002D480078401C2C49087004E0059820F0D5
:104420000700801C0590059820F03800303005907A
:10443000059820F4707000F5E0700590059820F460
:10444000705000F5A05005901421059861F3963046
:1044500005900598C0F3160000F18070059006984D
:104460006FF30900801C069040F2A461069861F386
:10447000942006900698C0F3140000F1AF40069017
:104480000799039860F3090107910398810A079837
:1044900061F3942007900398410D079861F35F50F2
:1044A000079005A807C88DE8070008480288084853
:1044B000018840F20110049BFEF70EFE08B0BDEC2F
:1044C000028B10BD00007A44F9000020F4000020A7
:1044D000F200002000B587B001210820FDF722F886
:1044E00001214804FDF72EF8072206212448FCF795
:1044F0007DFF072205212248FCF778FF6020059008
:1045000002208DF818008DF8190000208DF81A008F
:104510008DF81B0005A91A48FCF720FF4FF4E13085
:1045200001900020ADF80800ADF80A00ADF80C00CD
:10453000ADF810000C20ADF80E0001A91148FDF7F0
:1045400019FA01210F48FDF7ACF940210D48FDF79C
:104550009FF9012240F225510A48FDF7E5F926208E
:104560008DF8000003208DF8010000208DF8020076
:1045700001208DF803006846FCF78EFF07B000BDF0
:10458000000C02400044004000B58BB0A948006810
:104590000078012847D131208DF81C0030208DF89B
:1045A0001D008DF81E00089820F00700401C0890A0
:1045B000089820F0380008300890089820F47070AF
:1045C00000F500700890089820F4705008900021C1
:1045D000089861F3963008900898C0F31600089088
:1045E00009986FF30900401D099040F2DC510998C9
:1045F00061F3942009900998C0F3140000F1C840B9
:1046000009900A986FF3090014300A9040F20E6185
:104610000A9861F394200A9040F252310A9861F3AB
:104620005F500A9046E031208DF81C0030208DF854
:104630001D008DF81E00089820F00700C01C08908F
:10464000089820F0380008300890089820F470701E
:1046500000F500700890089820F470500890002130
:10466000089861F3963008900898C0F316000890F7
:1046700009986FF30900401D099040F2DC51099838
:1046800061F3942009900998C0F3140000F1C84028
:1046900009900A986FF3090014300A9040F20E61F5
:1046A0000A9861F394200A9040F252310A9861F31B
:1046B0005F500A9008A807C88DE807005E48028886
:1046C0005E48018840F20110079BFEF705FD59483E
:1046D0000068407801284AD131208DF80C00302044
:1046E0008DF80D0031208DF80E00049820F00700A1
:1046F000401C0490049820F038000830049004987E
:1047000020F4707000F500700490049820F470504C
:1047100000F5006004900021049861F39630049045
:104720000498C0F31600049005986FF30900143044
:1047300005904FF4C861059861F3942005900598A1
:10474000C0F3140000F1C840059006986FF309000B
:104750001430069040F27261069861F3942006903E
:1047600040F25231069861F35F50069053E03120D9
:104770008DF80C0030208DF80D0031208DF80E00E2
:10478000049820F00700801C0490049820F0380062
:1047900008300490049820F4707000F500700490C4
:1047A000049820F4705000F50060049000210498F3
:1047B00061F3963004900498C0F3160004901D48ED
:1047C0000068C078012805D105986FF309000A3008
:1047D000059003E005986FF3090005904FF4C86158
:1047E000059861F3942005900598C0F3140000F13A
:1047F000C840059006986FF309001430069040F207
:104800007261069861F39420069040F25231069846
:1048100061F35F50069004A807C88DE807000648BA
:1048200002880648018840F20110039BFEF754FC01
:104830000BB000BDE0000020F4000020F2000020DA
:1048400001460A69D1E901309860D1E90103586055
:104850005068884201D18868506000200861106863
:10486000401E10601068704700F1080141604FF071
:10487000FF31816000F10801C16001610021016028
:10488000704700210161704710B502460B685C1C3F
:104890000CB9106907E002F1080000E040684468C4
:1048A00024689C42FAD944684C604C68A1608860D6
:1048B00041600A611468641C146010BD42684A605B
:1048C00093688B60936859609160086103685B1C12
:1048D0000360704700BF502080F31188BFF34F8FF3
:1048E000BFF36F8F00BF0E480068401C0C49086082
:1048F00008460068012812D10A480068C0B208B909
:10490000012000E0002050B900BF502080F3118842
:10491000BFF34F8FBFF36F8F00BF00BFFEE770473D
:104920007800002004ED00E00D48006850B900BF99
:10493000502080F31188BFF34F8FBFF36F8F00BFFC
:1049400000BFFEE706480068401E054908600846AB
:10495000006820B9002080F3118800BF00BF7047B5
:104960007800002070B506463546002E3FD0083D41
:104970002C461F4960680968084008B1012000E022
:10498000002050B900BF502080F31188BFF34F8F33
:10499000BFF36F8F00BF00BFFEE7206808B901209A
:1049A00000E0002050B900BF502080F31188BFF311
:1049B0004F8FBFF36F8F00BF00BFFEE70C496068E9
:1049C0000968084098B1206888B909496068096891
:1049D0008843606000F0DCF90649606809680844B3
:1049E000044908602046FEF795FF00F059FF70BDAE
:1049F000980000209000002000204FF0E021086186
:104A00008861064800684FF47A71B0FBF1F0401EEF
:104A10004FF0E02148610720086170470000002046
:104A200070B5FBF76FFC0446102C16D304F1E020A0
:104A300090F8F05315480078854201DB012000E032
:104A4000002050B900BF502080F31188BFF34F8F72
:104A5000BFF36F8F00BF00BFFEE70D48006800F492
:104A6000E0600C490968884201D8012000E000207C
:104A700050B900BF502080F31188BFF34F8FBFF3B0
:104A80006F8F00BF00BFFEE770BD00007C000020FC
:104A90000CED00E080000020024600200BE0084BF7
:104AA00053F8303033B9064B43F8301003EBC003F2
:104AB0005A6002E0401C0828F1D300BF7047000094
:104AC000100100202DE9F04105460E4617462C4600
:104AD000FFF700FF94F94400401C10B9002084F84F
:104AE000440094F94500401C10B9002084F84500AA
:104AF000FFF71AFFA06B28B93A46314604F12400AB
:104B000000F0DCF82046FFF740F9BDE8F081000036
:104B100070B504460025D4B11248006808B90120D8
:104B200000E0002050B900BF502080F31188BFF38F
:104B30004F8FBFF36F8F00BF00BFFEE700F028F973
:104B400000212046FEF77CFC00F0AAFE05463DB998
:104B50004FF0805004490860BFF34F8FBFF36F8F51
:104B600070BD00006000002004ED00E070B5054657
:104B7000FFF7B0FE15B93048006800E0284604464B
:104B8000201DFFF75DFE78B9E06A00EB80002B493D
:104B900051F8200040B994F82C1001208840284991
:104BA0000968814326480160A06A18B104F1180021
:104BB000FFF746FE23480068401C224908601E4853
:104BC0000068844209D1211D1F48FFF777FE1F4866
:104BD0000068401C1D49086009E01D480068401E2F
:104BE0001B4908602046FEF77DFDFFF71FF8FFF721
:104BF0009BFE18480068E8B10F480068844219D14C
:104C00001548006808B9012000E0002050B900BF35
:104C1000502080F31188BFF34F8FBFF36F8F00BF19
:104C200000BFFEE74FF080500C490860BFF34F8F84
:104C3000BFF36F8F70BD00002800002050010020DE
:104C40004000002054000020F0010020340000202B
:104C500038000020440000206000002004ED00E047
:104C60000349096801600349096841607047000011
:104C7000500000203C0000200120014908607047DE
:104C80004C00002070B504460D4654B900BF5020BA
:104C900080F31188BFF34F8FBFF36F8F00BF00BF4A
:104CA000FEE70548016818312046FFF7EDFD0121B8
:104CB0002846FEF7C5FB70BD2800002070B50546EC
:104CC0000E46144655B900BF502080F31188BFF33B
:104CD0004F8FBFF36F8F00BF00BFFEE7064801682C
:104CE00018312846FFF7EAFD0CB14FF0FF36214698
:104CF0003046FEF7A5FB70BD280000201CB51D48FE
:104D000000210B468222CDE900101BA11C4800F0B7
:104D10002DFC0446012C02D100F044FE0446012C77
:104D200015D100BF502080F31188BFF34F8FBFF320
:104D30006F8F00BF4FF0FF30124908600120124909
:104D4000086000201149086000F07EF810E0601C47
:104D500008B1012000E0002050B900BF502080F3CE
:104D60001188BFF34F8FBFF36F8F00BF00BFFEE707
:104D70001CBD00005C00002049444C4500000000C0
:104D80009D37000858000020440000203C0000200F
:104D900002480068401C014908607047600000201C
:104DA0001D48006818B101201C49086032E000204D
:104DB0001A4908601A480068B0FA80F0C0F11F0173
:104DC00001EB8100174A52F8200008B1012000E0F1
:104DD000002050B900BF502080F31188BFF34F8FDF
:104DE000BFF36F8F00BF00BFFEE701EB81020D4BE9
:104DF00003EB820042685268426000F10802436897
:104E0000934202D14268526842604268D268064BBF
:104E10001A6000BF70470000600000204C000020B6
:104E20004000002050010020280000200246002001
:104E300004E0044B1B5C1354431C98B28842F8DB1B
:104E400070470000083101201CB5524800685249E3
:104E5000884201D0012000E0002050B900BF50205E
:104E600080F31188BFF34F8FBFF36F8F00BF00BF78
:104E7000FEE7484800684849491E884201D00120A1
:104E800000E0002050B900BF502080F31188BFF32C
:104E90004F8FBFF36F8F00BF00BFFEE73F4908464B
:104EA00000780190FF200A461070084600780090B4
:104EB0009DF8000000F0F0009DF80020904201D124
:104EC000012000E0002050B900BF502080F311887D
:104ED000BFF34F8FBFF36F8F00BF00BFFEE79DF89A
:104EE000000000F050002E4A107007202D4A10607C
:104EF00009E02C480068401E2A4A10609DF8000016
:104F00004006000E00909DF8000000F08000802810
:104F1000EFD024480068C0F10700042801D1012027
:104F200000E0002050B900BF502080F31188BFF38B
:104F30004F8FBFF36F8F00BF00BFFEE719480068B7
:104F40000002184A10601046008800F4E06010600B
:104F5000124A019810700F482030006840F4700029
:104F60000C49203108600846006840F07040086035
:104F7000FFF742FD00200C490860FBF78BF90B4856
:104F8000006840F0404009490860FBF76FF90020D5
:104F90001CBD000000ED00E071C20F4100E400E024
:104FA0007C000020800000207800002034EF00E02A
:104FB00010B500BF502080F31188BFF34F8FBFF3AF
:104FC0006F8F00BF00F018FB18B14FF080500449FC
:104FD000086000BF002080F3118800BF10BD0000F2
:104FE00004ED00E02DE9F84305460E4690460DB16C
:104FF000012000E0002050B900BF502080F311884C
:10500000BFF34F8FBFF36F8F00BF00BFFEE70EB936
:10501000002701E005FB06F707F15000FEF7F4FE5C
:1050200004464CB1A14609F1500943464A4631466F
:1050300028460094FEF7C6FB2046BDE8F883000032
:1050400070B505460E462C4654B900BF502080F37B
:105050001188BFF34F8FBFF36F8F00BF00BFFEE714
:10506000FFF738FCD4E90F12206801FB0200A060B2
:105070000020A06320686060E06B401E226C216805
:1050800000FB0211E160FF2084F8440084F8450031
:105090009EB9206908B9012000E00020A8B904F1F8
:1050A000100000F0B1FB80B14FF08050094908605A
:1050B000BFF34F8FBFF36F8F07E004F11000FFF7CE
:1050C000D3FB04F12400FFF7CFFBFFF72DFC0120F9
:1050D00070BD000004ED00E02DE9FF4383B00646FB
:1050E00088461D464FF00009344654B900BF502091
:1050F00080F31188BFF34F8FBFF36F8F00BF00BFE6
:10510000FEE7B8F1000F01D1206C08B9012000E0E2
:10511000002050B900BF502080F31188BFF34F8F9B
:10512000BFF36F8F00BF00BFFEE7022D02D1E06B1F
:10513000012801D1012000E0002050B900BF50201B
:1051400080F31188BFF34F8FBFF36F8F00BF00BF95
:10515000FEE700F03BFA08B9059808B9012000E025
:10516000002050B900BF502080F31188BFF34F8F4B
:10517000BFF36F8F00BF00BFFEE700BFFFF7AAFBC2
:10518000A06BE16B884201D3022D28D12A4641460B
:105190002046FEF768FA0746606A08B9012000E079
:1051A000002068B904F1240000F02EFB88B14FF014
:1051B000805032490860BFF34F8FBFF36F8F08E014
:1051C0003FB14FF080502D490860BFF34F8FBFF3C0
:1051D0006F8FFFF7A9FB012007B0BDE8F0830598AA
:1051E00018B9FFF7A1FB0020F6E7B9F1000F04D1D1
:1051F00001A8FFF735FD4FF00109FFF795FBFFF719
:10520000C7FDFFF767FB94F94400401C10B900206C
:1052100084F8440094F94500401C10B9002084F83B
:105220004500FFF781FB05A901A800F059F9F0B985
:105230002046FEF7DCFBA0B104F110000599FFF752
:1052400021FD2046FEF7A1FD00F02AFB002895D1A4
:105250004FF0805009490860BFF34F8FBFF36F8F45
:105260008CE72046FEF791FD00F01AFB86E720460A
:10527000FEF78BFD00F014FB0020ADE704ED00E02D
:105280002DE9F05F07468A4690461E463C4654B9D3
:1052900000BF502080F31188BFF34F8FBFF36F8F93
:1052A00000BF00BFFEE7BAF1000F01D1206C08B9C2
:1052B000012000E0002050B900BF502080F3118889
:1052C000BFF34F8FBFF36F8F00BF00BFFEE7022E0B
:1052D00002D1E06B012801D1012000E0002050B98B
:1052E00000BF502080F31188BFF34F8FBFF36F8F43
:1052F00000BF00BFFEE7FFF793FB00BF5021EFF3B5
:10530000118081F31188BFF34F8FBFF36F8F00BF00
:105310000546A06BE16B884201D3022E23D194F99C
:1053200045B0324651462046FEF79DF90BF101008B
:1053300088B9606A08B9012000E0002080B904F152
:10534000240000F061FA58B1B8F1000F08D0012034
:10535000C8F8000004E00BF1010040B284F84500F9
:105360004FF0010901E04FF0000900BF85F31188FB
:1053700000BF4846BDE8F09F2DE9F74183B00546E0
:105380000E464FF000082C4654B900BF502080F361
:105390001188BFF34F8FBFF36F8F00BF00BFFEE7D1
:1053A0000EB9206C08B9012000E0002050B900BF00
:1053B000502080F31188BFF34F8FBFF36F8F00BF72
:1053C00000BFFEE700F002F908B9059808B901200E
:1053D00000E0002050B900BF502080F31188BFF3D7
:1053E0004F8FBFF36F8F00BF00BFFEE700BFFFF717
:1053F00071FAA76BF7B131462046FEF71FF9781E08
:10540000A063206908B9012000E0002060B904F120
:10541000100000F0F9F938B14FF080502F490860C2
:10542000BFF34F8FBFF36F8FFFF77EFA012006B0F7
:10543000BDE8F081059818B9FFF776FA0020F6E785
:10544000B8F1000F04D101A8FFF70AFC4FF00108E2
:10545000FFF76AFAFFF79CFCFFF73CFA94F9440067
:10546000401C10B9002084F8440094F94500401C09
:1054700010B9002084F84500FFF756FA05A901A8E5
:1054800000F02EF8F0B92046FEF7A4FAA0B104F11E
:1054900024000599FFF7F6FB2046FEF776FC00F0A6
:1054A000FFF90028A3D14FF080500C490860BFF3EA
:1054B0004F8FBFF36F8F9AE72046FEF766FC00F030
:1054C000EFF994E72046FEF760FC00F0E9F920468A
:1054D000FEF780FA00288AD00020A8E704ED00E05B
:1054E00070B505460C4655B900BF502080F31188B1
:1054F000BFF34F8FBFF36F8F00BF00BFFEE754B9FC
:1055000000BF502080F31188BFF34F8FBFF36F8F20
:1055100000BF00BFFEE7FFF7DDF9124802686868C8
:10552000131A2068401C08B9002617E00E492868A5
:105530000968884204D06868904201D801260DE0CD
:105540002068984207D92068C01A20602846FFF7D3
:1055500087FB002602E0002020600126FFF7E4F927
:10556000304670BD3C000020500000202DE9FF4F68
:1055700085B0804689461746DDE912ABB800FEF7D4
:1055800043FC064656B15820FEF73EFC04460CB1DB
:10559000266304E03046FFF7E5F900E000247CB123
:1055A0000020CDE900ABCDE902403A4649464046ED
:1055B000089BFEF71CF92046FDF78EFF012501E050
:1055C0004FF0FF35284609B0BDE8F08F054909685E
:1055D00009B9012005E00449096809B9022000E081
:1055E0000020704744000020600000200149086846
:1055F000704700003C0000202DE9F0414FF000080A
:1056000044480068002877D143480068451C424858
:10561000056015BB41480068006808B9012000E03A
:10562000002050B900BF502080F31188BFF34F8F86
:10563000BFF36F8F00BF00BFFEE7384807683848E8
:105640000068364908603648076036480068401CE4
:1056500034490860FEF7EAFA00BF33480068854223
:105660003CD300BF2D480068006808B9012000E065
:10567000002020B14FF0FF302B4908602DE0274873
:105680000068C068C4686668B54202D226480660F1
:1056900023E0201DFFF7D4F8A06A18B104F1180028
:1056A000FFF7CEF894F82C10012088401F490968B4
:1056B00008431E490860E16A01EB81011C4A02EBC4
:1056C0008100211DFFF7FAF81A49E06A0968C96AE2
:1056D0008842C7D34FF00108C4E700BF15480068EF
:1056E000C06A00EB8000124951F82000012801D95E
:1056F0004FF0010805E0FFE70F480068401C0E4925
:1057000008600E48006808B14FF001084046BDE847
:10571000F0810000600000203C0000202C000020F0
:1057200030000020500000205800002040000020E1
:105730005001002028000020480000204C000020DC
:1057400070B505462C460026002D55D02B48006824
:10575000844201D1012000E0002050B900BF502058
:1057600080F31188BFF34F8FBFF36F8F00BF00BF6F
:10577000FEE7E06C50B900BF502080F31188BFF302
:105780004F8FBFF36F8F00BF00BFFEE7E06C401E7E
:10579000E064A16CE06A88422ED0E06C60BB201D02
:1057A000FFF74EF878B9E06A00EB8000144951F831
:1057B000200040B994F82C10012088401149096854
:1057C000814310480160A06CE062E06AC0F105000E
:1057D000A06194F82C10012088400A490968084308
:1057E00008490860E16A01EB8101054A02EB81008A
:1057F000211DFFF763F80126304670BD2800002008
:10580000500100204000002070B50646F068C468D2
:1058100054B900BF502080F31188BFF34F8FBFF3FE
:105820006F8F00BF00BFFEE704F11800FFF708F814
:1058300015480068A8B9201DFFF702F894F82C104D
:105840000120884011490968084310490860E16A4D
:1058500001EB81010E4A02EB8100211DFFF72EF8BA
:1058600004E004F118010B48FFF728F80A49E06A40
:105870000968C96A884204D90125012007490860DE
:1058800000E00025284670BD600000204000002098
:1058900050010020DC010020280000204C000020E6
:1058A00070B5002400263648006850B900BF50206B
:1058B00080F31188BFF34F8FBFF36F8F00BF00BF1E
:1058C000FEE7FFF707F82E480068401E2C490860E5
:1058D0000846006800284FD12A48006800284BD0AD
:1058E00024E02948C068C46804F11800FEF7A8FF46
:1058F000201DFEF7A5FF94F82C10012088402349B5
:105900000968084321490860E16A01EB8101204AE6
:1059100002EB8100211DFEF7D1FF1E49E06A0968F4
:10592000C96A884202D301201B49086016480068F2
:1059300008B9012000E000200028D2D00CB1FEF709
:1059400075F91648056865B100BFFFF755FE10B13F
:105950000120114908606D1E002DF6D100200F496D
:1059600008600D48006838B1012630070C4908600E
:10597000BFF34F8FBFF36F8FFEF7D6FF304670BD7A
:105980006000002038000020DC01002040000020E2
:1059900050010020280000204C000020480000207A
:1059A00004ED00E01CB50024FDF7F2FD0E48006890
:1059B00058B10E48022100234FF48272CDE9001045
:1059C0000BA10D48FFF7D2FD044654B900BF50208B
:1059D00080F31188BFF34F8FBFF36F8F00BF00BFFD
:1059E000FEE720461CBD00006C0000207000002077
:1059F000546D722053766300713D00082DE9FE431B
:105A000004460D4616461F46DDF828804FF0000973
:105A100054B900BF502080F31188BFF34F8FBFF3FC
:105A20006F8F00BF00BFFEE71448006810B30095F9
:105A300001960294062D15DAFFF7C8FD022808D159
:105A40000023424669460D480068FFF745FB814642
:105A500010E000231A46694608480068FFF73CFB3F
:105A6000814607E000233A46694604480068FFF78C
:105A700007FC81464846BDE8FE8300006C0000201C
:105A800081F00041704780F00040704721F00041F4
:105A9000704720F00040704721F00042A2F16052B0
:105AA000B2F5801F01F0004328BFD2F17F6C0BD903
:105AB0005FEA001C43EAC20242EB507018BF704715
:105AC00028BF20F001007047B2F5801FBCBF184608
:105AD00070474FEA410C1CF5001F02D2084600F047
