:020000040800F2
:1000000080440120F90300085D52000829480008D7
:1000100059520008212A0008A36B000800000000C4
:10002000000000000000000000000000390300088C
:10003000CD3900080000000095030008B15F0008FA
:100040001D0400081D0400081D0400081D0400080C
:100050001D0400081D0400081D0400081D040008FC
:100060001D0400081D0400081D0400081D040008EC
:100070001D0400081D0400081D0400081D040008DC
:100080001D0400081D0400081D0400081D040008CC
:10009000252A00081D0400081D040008CF390008A7
:1000A0001D0400081D0400081D0400081D040008AC
:1000B0001D0400081D0400081D0400081D0400089C
:1000C0001D0400081D0400081D0400081D0400088C
:1000D0001D040008F56700081D0400081D04000841
:1000E0001D0400081D0400081D0400081D0400086C
:1000F0001D0400081D0400081D0400081D0400085C
:100100001D0400081D0400081D0400081D0400084B
:100110001D0400081D0400081D0400081D0400083B
:100120001D0400081D3600081D0400081D040008F9
:100130001D0400081D0400081D0400081D0400081B
:10014000652B00081D0400081D0400081D0400089C
:10015000613600081D0400081D0400081D04000885
:100160001D0400081D0400081D0400081D040008EB
:100170001D0400081D0400081D0400080000000004
:100180001D0400081D0400081D040008BD670008C8
:100190001D0400081D0400081D0400081D040008BB
:1001A00000000000000000001D04000800F002F83C
:1001B00000F0B2F80AA090E8000C82448344AAF14F
:1001C0000107DA4501D100F0A7F8AFF2090EBAE84D
:1001D0000F0013F0010F18BFFB1A43F0010318477B
:1001E000E4040100040501000A444FF0000C10F87B
:1001F000013B13F0070408BF10F8014B1D1108BFA5
:1002000010F8015B641E05D010F8016B641E01F844
:10021000016BF9D113F0080F1EBF10F8014BAD1C94
:100220000C1B09D16D1E58BF01F801CBFAD505E0B2
:1002300014F8016B01F8016B6D1EF9D59142D6D30C
:10024000704700000023002400250026103A28BF34
:1002500078C1FBD8520728BF30C148BF0B60704738
:100260006E2900F0B782702900F0F98366290EF03C
:100270004D8665290EF04A8667290EF0478661296A
:100280000EF0468603681B0A28BF41F080016929E9
:1002900000F06482642900F06182752900F05E82BA
:1002A0006F2900F08783782900F0C583E92900F0E1
:1002B0002183E42900F01E83F52900F01B83EF2938
:1002C00000F08483F82900F0C4830368DB0928BFA9
:1002D00041F08001632901F03581732901F03A81F1
:1002E000E32901F04581F32901F04A81002070479C
:1002F0001FB50EF053FD01F099F904000020002114
:100300000DF050FA401C6060002000210DF034FA1E
:10031000E0601FBD10B510BD01F05AF91146FFF79E
:10032000E7FF09F0F9FB01F033FA03B4FFF7F2FF3E
:1003300003BC01F0D5FA00002C4B19680868B0E83E
:10034000F04F80F30988BFF36F8F4FF0000080F308
:10035000118870470000000008480068006880F3BA
:1003600008884FF0000080F3148862B661B6BFF3CE
:100370004F8FBFF36F8F00DF00BF00BF08ED00E0BD
:10038000DFF80C00016841F470010160704700BFA4
:1003900088ED00E0EFF30980BFF36F8F134B1A680D
:1003A0001EF0100F08BF20ED108A20E9F04F1060FA
:1003B00009B44FF0500080F31188BFF34F8FBFF3A3
:1003C0006F8F0CF0BDF94FF0000080F3118809BC6D
:1003D00019680868B0E8F04F1EF0100F08BFB0ECC5
:1003E000108A80F30988BFF36F8F70472C000020BC
:1003F000EFF30580704700000C48016841F470017C
:1004000001600B4880470B480047FEE7FEE7FEE728
:10041000FEE7FEE7FEE7FEE7FEE7FEE7FEE7000099
:1004200005480649044A064B7047000088ED00E085
:10043000C15F0008AD010008804001208044012018
:10044000804001209FED1A1AF5EE000A40EE010AE5
:10045000BDEEE00AF5EEC00A10EE100AF1EE10FA59
:1004600038BF401E00EE100A1349F7EE001AB8EE2E
:10047000C00A30EEC00ADFED0F0A20EE200AFCEEC3
:10048000C00A10EE900AC0F3080000EE900A01EBDB
:100490008000F8EE600A90ED011A70EE600A90EDAF
:1004A000000A71EEE01A21EE800A00EE810A704720
:1004B00083F9223E000000449CFC0008DFED190A8D
:1004C000B5EEC00A60EE200ABDEEE01A11EE100A89
:1004D000F1EE10FA38BF401E00EE100A1349F7EE95
:1004E000001AB8EEC00A30EEC00ADFED0F0A60EE67
:1004F000200ABCEEE00A10EE100AC0F3080000EE7D
:10050000100A01EB8000B8EE400A90ED011A70EE7F
:10051000C00A90ED000A71EEE01A21EE800A00EEAA
:10052000810A704783F9223E000000449CFC0008C9
:100530001CB50C46064B7B4469460090204600F0F3
:1005400062F904460020694600F070F920461CBD9F
:10055000F302000010B5431C02E010F8011B71B15A
:100560008107FAD14FF0013202C88C1A8C4314EA89
:10057000C211F9D0C01A0A0603D0C01E10BDC01A9D
:1005800010BD0A0401D0801E10BD0902FCD0401E1F
:1005900010BD032A40F2308010F0030C00F01580EB
:1005A00011F8013BBCF1020F624498BF11F801CB76
:1005B00000F8013B38BF11F8013BA2F1040298BFDB
:1005C00000F801CB38BF00F8013B11F0030300F045
:1005D0001583083AC0F0088051F8043B083A51F8F6
:1005E00004CBA0E80810F5E7121D5CBF51F8043BEE
:1005F00040F8043BAFF30080D20724BF11F8013B61
:1006000011F801CB48BF11F8012B24BF00F8013BC2
:1006100000F801CB48BF00F8012B704702F0FF0340
:1006200043EA032242EA024200F01CBB4FF0000200
:1006300000B5134694469646203922BFA0E80C50D8
:10064000A0E80C50B1F12001BFF4F7AF090728BFB3
:10065000A0E80C5048BF0CC05DF804EB890028BF2F
:1006600040F8042B08BF704748BF20F8022B11F058
:10067000804F18BF00F8012B7047704770477047D4
:1006800010B500F00FFB006810BD10B5044600F077
:1006900009FB046010BD70B5044685690068C10699
:1006A00001D5302600E02026C00707D070BDD4E970
:1006B000012130469047206A401C20626D1EF6D50D
:1006C00070BD70B5044685690078C00707D170BD5C
:1006D000D4E9012120209047206A401C20626D1E31
:1006E000F6D570BD09684A0501D540B27047C90505
:1006F000FCD500B2704709684A0501D5C0B2704701
:10070000C905FCD580B2704770B50C460546012A74
:1007100005D02878800600D5EA69002302E001238D
:1007200005E05B1C934202D2E05C0028F9D1A86985
:10073000E618C01AA861286A184428622846FFF7FC
:10074000AAFF04E0D5E9012114F8010B9047B44257
:10075000F8D32846FFF7B5FF70BD00002DE9F04142
:100760000646002410687529314616A510D0FFF7FB
:10077000B9FF002802DA404213A507E031688A0772
:1007800001D512A502E0490704D511A5012401E015
:10079000FFF7B1FF00210A2206F1240709E0B0FBB0
:1007A000F2FCB0FBF2F302FB1C0030307854184628
:1007B000491C0028F3D123462A463046BDE8F041C3
:1007C00000F0D2BA000000002D0000002B00000055
:1007D0002000000011680268006A530501D5087006
:1007E0000AE0D30501D5088006E0130603D5C21739
:1007F000C1E9000200E008600120704701694A1C5D
:1008000002610878704700B58FB0CDE90131002151
:10081000059105497944CDE903101146684600F079
:1008200029F90FB000BD0000E5FFFFFF0A6802F8DC
:10083000010B0A60704700002DE9FF5F15468A46EC
:100840000446DFF8AC80F8440027D8E900103E46A3
:10085000CDE9001010E03AF816106A4602A800F040
:1008600093FE411C07D02178890603D5E269391827
:1008700091420DD80744761C2078800602D5E069A5
:10088000B84205DDAE42E6DB3AF816000028E2D1B8
:10089000A069C01BA0612046FFF7FDFED8E900104B
:1008A000CDE90010002017E03AF818106A4602A8B7
:1008B00000F06AFEB0F1FF3F81460BD000250DF13C
:1008C000080B05E0D4E901211BF8050090476D1CD9
:1008D0004D45F7D308F10100B0428046E4DB206AC1
:1008E000384420622046FFF7ECFEBDE8FF9F000081
:1008F00056FC00002DE9F0418046D21D22F007028F
:100900000025D2E90002F52915A614D0011E72F1C6
:10091000000106DA0023D0EB030063EB020211A60C
:1009200008E0D8F800108B0701D50FA602E04907B0
:1009300001D50EA601251146002408F1240704E084
:1009400000F0B4F930323A55641C50EA0102F7D194
:100950002B46324621464046BDE8F04100F004BA3D
:10096000000000002D0000002B000000200000000F
:1009700030B4002100F1240408E002F00705D20899
:10098000303542EA4372DB086554491C52EA0305DC
:10099000F3D10468002310A2250708D504F0200431
:1009A0000C4304D0C46901230CA2641EC46130BC92
:1009B00000F0DAB910B5044621461068FFF79BFE37
:1009C00002462046BDE810400023D1E7D21D22F0A8
:1009D0000701D1E90023CBE7000000003000000050
:1009E000F0B40D460188090502D5214C7C4402E093
:1009F0001F4C7C440E34002100F1240608E002F074
:100A00000F071209E75D42EA03721B097754491C7C
:100A100052EA0307F3D102780023120704D5702DA0
:100A200006D009B1022311342246F0BC00F09CB973
:100A300001231034F8E770B504460D4621461068CE
:100A4000FFF759FE024629462046BDE870400023C4
:100A5000C6E7D21D22F00703D3E90023C0E70368ED
:100A6000126843F0200303600823C3610023B7E743
:100A7000B8FA00002DE9F05F894604464FF0000AFD
:100A8000DFF874B1FB44C0F820A02046E168884735
:100A9000002874D0252806D0D4E901219047206A87
:100AA000401C2062F1E700265F462046E168884747
:100AB0002028054607DB312D05D2781910F8200CC7
:100AC00008B10643F1E7B00701D526F00406C4F8E3
:100AD0001CA00027C4F818A02A2D09D0284606F02B
:100AE000E5FE38B304EB8708303DC8F8185019E02C
:100AF00059F8041B204604EB87029161E16888479E
:100B0000012F054618D1E069002820DA26F02006DA
:100B10001DE0D8F8180000EB800005EB40003038ED
:100B2000C8F818002046E1688847054606F0BEFE72
:100B30000028EED1012F0AD02E2D08D12046E168E1
:100B400088477F1C0546022F46F02006C4DBA069BB
:100B5000002803DA404246F00106A061F00701D008
:100B600026F010066C2D0BD0682D09D04C2D39D0F5
:100B70006A2D35D0742D35D07A2D33D016E038E07B
:100B8000E1682F4620468847B842054609D16C2FB8
:100B900026D04FF48060E16806432046884705462A
:100BA00004E06C2F1AD04FF4807006430DB3A5F10A
:100BB0004100192802D8203546F400664A462946E5
:100BC000204626604E46FFF74BFB80B101280BD034
:100BD000F61D26F0070000F1080956E74020E4E77B
:100BE0008020D8E70020D6E706F104094DE7284623
:100BF00052E7206ABDE8F09F48FA000010B5203A9D
:100C0000C0F00B80B1E81850203AA0E81850B1E8C5
:100C10001850A0E81850BFF4F5AF5FEA027C24BF7B
:100C2000B1E81850A0E8185044BF18C918C0BDE872
:100C300010405FEA827C24BF51F8043B40F8043B3B
:100C400008BF7047D20728BF31F8023B48BF11F8F0
:100C5000012B28BF20F8023B48BF00F8012B70474A
:100C60004FF000020429C0F0128010F0030C3FF492
:100C7000DFACCCF1040CBCF1020F18BF00F8012B63
:100C8000A8BF20F8022BA1EB0C01FFF7D1BC5FEA53
:100C9000C17C24BF00F8012B00F8012B48BF00F8ED
:100CA000012B7047004870471C40012030B5B0F15F
:100CB0000A024FEA900E71F100034EEA817EB0EB1A
:100CC0000E0061EB91014FEA101E4EEA017E10EB1F
:100CD0000E0041EB11114FEA102E4EEA016E10EB9F
:100CE0000E0041EB11214FEA104E4EEA014E10EB7F
:100CF0000E0041EB1141401841F100014FEAD000D4
:100D000040EA41704FEAD10110EB80054FEA8104BF
:100D100044EA907444EB01046D1944EB0404521B43
:100D2000A3414FF0000348BF0A3200D530BD401C3C
:100D300041F1000130BD00001FB584B000200A9CC5
:100D400006AB04AA02A90094AFF3008018B1DDE954
:100D5000020108B010BD0348204000F01FFD002034
:100D60000146F6E70000207C2DE9F0470D46994644
:100D70009246044600F124080168880604D5E0691B
:100D800021F01001216000E00120A84201DD471B95
:100D900000E00027A1697A1902EB0900081AA06196
:100DA0002078C00602D42046FFF775FC002608E034
:100DB000D4E901211AF806009047206A401C761CED
:100DC00020624E45F4DB2078C0060AD52046FFF7A6
:100DD00062FC06E0D4E9012130209047206A401CE3
:100DE0002062381EA7F10107F4DC07E0D4E90121F5
:100DF00018F805009047206A401C2062281EA5F1C3
:100E00000105F3DC2046FFF75CFC2078000602D5E4
:100E10000220BDE8F0870120FBE770472DE9FF4F76
:100E20000C461E464FF0FF378BB0D2E90001DDF8CB
:100E300060800A908A46C1F30A5505B93D460021F3
:100E400008460EF053F8BAF1000F00F4400005DA3E
:100E500000EB80004FF4400101EA50004FEA905946
:100E6000B9F1010F00DDB9460A9850EA4A000ED0E8
:100E700044F61050A5F2FF3545432F14B8F1000F8A
:100E80001ED07542291E1EDDC9F100021CE0B8F11A
:100E9000010F4FF0000001D0302103E0F24305E0E4
:100EA0002154401CB042FBDB30460022002121547B
:100EB0000B99C1F80880C1E900200FB0BDE8F08FA0
:100EC000BD1B6D1CDEE74A4600DA694206A800F049
:100ED000F1FB06AB93E8070003AB83E8070050463D
:100EE0000A9900F024FD8DE80700A0F500501F3896
:100EF00000900398002D09DD42F21F014A46084484
:100F000003A90390684600F083FF08E0A0F50050B5
:100F10004A461F3803A90390684600F08DFF8DE80C
:100F200007000004000C03D04FF0FF30410800E040
:100F30001046B8F1000F03D00022009215461EE0C3
:100F4000751E05D4FFF7B2FE303262556D1EF9D51D
:100F5000B3460122084302D000227F1C04E020781F
:100F6000302801D100227F1E002A099786D01DE07B
:100F7000112D07DAFFF79AFE303262556D1C50EAE8
:100F80000102F5D1084302D00098C8B10EE000215B
:100F9000681E05E0235C625C63542254401E491CB9
:100FA0008142F7DBAB46A81B401E0990002004F8E5
:100FB0000B000B98099AC0F80880C0E9002B7CE769
:100FC00011264FF0000859E72DE9F04F88460446F6
:100FD000D21D22F0070191B0D1E90001CDE90A014B
:100FE00005F0E1FD02460B98C00F01D02D2007E06F
:100FF0002068810701D52B2002E0202101EAC000F2
:10100000032A099001D0072A05DB03464146204602
:1010100000F010FB0BE12078800601D5E06900E0CC
:101020000620B8F1650F814606D0B8F1660F18D0DA
:10103000B8F1670F70D131E00020B9F1110F0090C5
:1010400001DB112301E009F101030AAA01A90CA89F
:10105000FFF7E4FEDDE90C70002609F10105834687
:1010600047E001204B4600904FF000470AAA01A933
:101070000CA8FFF7D3FEDDE90DB00C995D46002604
:1010800010B909F101000D18B9EB050003D4C0F146
:10109000FF3609F10105A5EB09002BE0B9F1010FBD
:1010A00001DA4FF001090020B9F1110F0090484614
:1010B00001DD112300E003460AAA01A90CA8FFF7ED
:1010C000ADFEDDE90C704D46002683462078000712
:1010D0000AD4AB4500DA5D4601A8012D04DD4119B3
:1010E00011F8011C302907D04F4502DA17F1040F1F
:1010F00004DA012082460FE06D1EEEE7002F02DCCD
:10110000ED1B3E4403E0781CA84200DD7D1CB81BAB
:1011100000F1010A4FF000472078000703D4AA45E8
:1011200001DB4FF0FF3A0021B7F1004F0DF143080A
:101130008DF8431024D002202B23002F01DA7F42A8
:101140002D230A21021EA0F1010000DC5FB197FBF4
:10115000F1FC97FBF1F201FB1C7C17460CF1300C03
:1011600008F801CDEEE7A8F1010003702188090518
:1011700001D5452100E06521A0F1010800F8011C1E
:1011800009980FA9A1EB0807FF1D00B10120411923
:1011900001EBEA70A1693844081A401EA06120786A
:1011A000C00602D42046FFF776FA099828B1D4E9A0
:1011B00001219047206A401C20622078C00622D579
:1011C0002046FFF768FA1EE0002E04DBB34502DD7F
:1011D00001A8805D00E03020D4E901219047206A19
:1011E000401C2062761CAAF101005FEA000A0AD1C5
:1011F00000F01CFAC0680168405CD4E90121904706
:10120000206A401C2062281EA5F10105DCDC07E0F5
:10121000D4E9012118F8010B9047206A401C206294
:10122000381EA7F10107F3DC2046FFF74AFA032036
:1012300011B043E62DE9F04F04460D46D21D22F0D1
:10124000070089B0D0E9009248461746394605F0B4
:10125000AAFC0246F80F01D02D2307E02068810781
:1012600001D52B2302E0202101EAC0038DF82030B4
:101270000BB1012000E00020032A824601D0072A9A
:1012800004DB2946204600F0D5F93DE120788006B0
:1012900001D40D2500E0E569C7F30A560D2D49DAA2
:1012A00000214FEA175B08460DF020FE002F00F4E6
:1012B000400007DA00EB80004FF4400100EBD070F3
:1012C00001EA60008115012901DD4FF0FF310022A4
:1012D0004FEA850CBCF1180F06D31346ACF1180089
:1012E0004FF08052C24003E04FF4801323FA0CF316
:1012F0000CF10C0CBCF1200F04D3ACF1200C09FA5A
:101300000CF001E007FA0CF000294FF0004801DD75
:1013100018B90FE00ED140450CD319EB02095F411B
:1013200021B9404502D19F4329EA0209BBEB175F6F
:1013300000D0761C2088000502D57B48784402E066
:1013400079487844193808AA302302F80A30037C17
:101350000AF10101002E0AF1020A53546A4602DC26
:101360004FF0300101E04FF031014FF001088DF8EE
:10137000001002D0A6F2FF3603E059EA470100D080
:101380006A4E002D02DC2178090704D54FF00208CF
:101390002E218DF80110C44600210BE0C7F3034352
:1013A0003F01C35C491C6D1E02F80830052908F195
:1013B000010801DA002DF1DC00210CE000EB1973CB
:1013C000491C1B786D1E082902F808304FEA0919DC
:1013D00008F1010801DA002DF0DC2178890602D538
:1013E00014E0A8F10108E04505DD02EB080111F861
:1013F000011C3029F5D0B8F1000F07DD02EB080120
:1014000011F8011C2E2901D1A8F10108002D05DDDC
:101410003E2102F808106D1E08F10108407C002EE4
:1014200002F8080008F1010804DA2D20764202F8DB
:10143000080002E02B2002F808000A214FF47A701D
:10144000864208F101080BDB96FBF0F3303302F81B
:10145000083096FBF0F308F1010800FB136601E089
:10146000642E0CDB642096FBF0F3303302F8083076
:1014700096FBF0F308F1010800FB136601E00A2E69
:1014800006DB96FBF1F0303002F8080008F10108A5
:1014900096FBF1F001FB1060303002F80800A16902
:1014A00008F1010808EB050202EB0A00081AA06126
:1014B0002078C00602D42046FFF7EDF8216A08AE76
:1014C00001EB0A00206204E0D4E9012116F8010BC7
:1014D0009047BAF1010AF7D22078C00602D520461B
:1014E000FFF7D9F86E4609E016F8010B3E280FD039
:1014F000D4E901219047206A401C2062B8F101081C
:10150000F2D22046FFF7DDF809B00320BDE8F08FE6
:10151000206A2844206203E0D4E90121302090476A
:101520006D1EEBD3F8E70000DBF2000002FCFFFFCA
:1015300010B5436913B1AFF3008001E0FFF7E4F8A1
:10154000012010BD127800F124010A7000224A70B7
:101550000122EDE711684FF0FF32E9E710B543696A
:1015600013B1AFF3008001E0FFF766F9012010BD71
:10157000128800F1240182840022C2840122EDE756
:1015800011684FF0FF32E9E770B516460C46054684
:1015900000F044F8036893F80101012806D0FF2CFD
:1015A0000FD8185D68B101202C7070BDD3F8070109
:1015B0003246214603F2071303442846BDE8704033
:1015C00018474FF0FF3070BD004870471C400120A5
:1015D0007546FFF7F9FFAE4605006946534620F011
:1015E0000700854618B020B5FEF71AFFBDE8204079
:1015F0004FF000064FF000074FF000084FF0000BCF
:1016000021F00701AC46ACE8C009ACE8C009ACE881
:10161000C009ACE8C0098D467047000010B500F065
:1016200005F8001D10BD00BF7DC1000000487047D7
:101630003C4001202DE9F0411F4604460326016885
:10164000072A01F4006004DB08B116A505E016A521
:1016500003E008B115A500E015A521F010002060F9
:10166000A069C01EA0610FB1401EA0612046FFF717
:1016700012F84FB1D4E9012138469047206A401C46
:101680002062C01C206206E0206AFAE7D4E901214A
:1016900015F8010B9047761EF8D22046FFF711F897
:1016A000BDE8F0814E414E006E616E00494E46002D
:1016B000696E66002DE9F047814616468AB03348C8
:1016C00078440DC88DE80D0030487844801C03AC88
:1016D0000DC884E80D0041F69B300844372190FB8B
:1016E000F1F290FBF1F5A5F1800501FB12041B3C22
:1016F00002D56442012000E00020DFF890A080467F
:101700000027FA44AAF1BE0A0DE0E00709D03246EC
:10171000684607EB47010AEB810100F08DFB8DE87D
:10172000070064107F1C002CEFD1184F7F44AC3FA2
:1017300018E0E80714D007EB04100DF1180A90E840
:101740000E008AE80E00C068F04201D19819089096
:10175000324606A903A800F06FFB03AB83E807003D
:101760006D10641C002DE4D132466946B8F1000FBB
:1017700003A802D000F04CFB01E000F05DFBC9E9DA
:101780000001C9F808200AB0BDE8F087E8EF0000C2
:101790000446AFF300802046FEF7C7FD10B500F009
:1017A00009F8BDE81040AFF30080002801D000F038
:1017B00097B8704710B5022803D0410103D50DA199
:1017C00012E0002010BD010101D50FA10CE0C10005
:1017D00001D511A108E0810001D512A104E040006B
:1017E00001D513A100E0002115A000F07FF8012031
:1017F00010BD0000496E76616C6964204F7065729F
:101800006174696F6E000000446976696465204206
:1018100079205A65726F00004F766572666C6F773B
:1018200000000000556E646572666C6F7700000002
:10183000496E657861637420526573756C7400003D
:101840005349474650453A2041726974686D657442
:10185000696320657863657074696F6E3A20000073
:101860004FF0013C50F8042B51F8043B9A4221D12F
:10187000A2EB0C03934313EACC1317D150F8042BBB
:1018800051F8043B9A4215D1A2EB0C03934313EA9F
:10189000CC130BD150F8042B51F8043B9A4209D1D8
:1018A000A2EB0C03934313EACC13DBD04FF0000000
:1018B000704700BFD01A01BAB1FA81F101F01801E6
:1018C00022FA01F0CB40C1F12001DBB2C0B2C01A54
:1018D0002CFA01F3D11A914311EAC311E6D17047F2
:1018E00001491820ABBEFEE72600020070B5054690
:1018F0000C460A2000E06D1C00F011F835B1287884
:101900000028F8D102E0641C00F009F814B1207836
:101910000028F8D1BDE870400A20AFF3008008B578
:1019200069468DF800000320ABBE08BD70475FEA32
:10193000400C08BF91F0000F4FEA8C234FEAC12200
:1019400043EA51514FEA1C5018BF00F5F0404FEAEE
:10195000300018BF41F000415FEA6C5C00F0298064
:10196000BCF1FF3F08BF40F080407047130C06BF3A
:1019700012044FF0100C4FF0000C130E04BF1202B3
:101980000CF1080C130F04BF12010CF1040C930F9F
:1019900004BF92000CF1020CD30F04BF52000CF1F3
:1019A000010C11464FF00002A0F11F00A0EB0C004B
:1019B000704711F0004F08BF704731F000413FF40D
:1019C000D5AF0B0C06BF09044FF0100C4FF0000C04
:1019D0000B0E04BF09020CF1080C0B0F04BF090128
:1019E0000CF1040C8B0F04BF89000CF1020CCB0F1F
:1019F00004BF49000CF1010CCCF12003A0EB0C005A
:101A000022FA03F302FA0CF241EA030100F10100A9
:101A1000704720F07F4C80EA030023F07F47ACEB57
:101A2000070303F57C5300F0004003F1FF032DE9A9
:101A300080494FEA154B09B44FEA144325EA0B4E8F
:101A400024EA03480FF2042606EB132749083E78E0
:101A50005FEA320203FB0667C7F5000707FB06F6DD
:101A60004FEA54374FEAD64606F1020607FB066CEA
:101A7000CCF1005C4FEA1C472CEA074C07FB06F44C
:101A80000CFB06F504EB15464FEA961634BF002012
:101A90004FF000404FEAD13706FB07FC4FEA1C4CE1
:101AA0000CFB0BF7D21B03FB0CF761EB07010CFBE4
:101AB0000EF7B0EB074072EB17420CFB08F734BF90
:101AC000A2EB0742B2EB074261EB17414FEA0C442D
:101AD0004FEA910706FB07FC4FEA1C4C0CFB0BF787
:101AE000B0EBC74072EB573203FB0CF734BFA2EBED
:101AF000C742B2EBC74261EB57310CFB0EF7B0EBBC
:101B0000C70072EB57720CFB08F734BFA2EBC70299
:101B1000B2EBC70261EB5771039F4FEA816141EA63
:101B2000921104EBCC044FEAD1374FEA826206FBF4
:101B300007FC42EA90124FEA80604FEA1C4C0CFB13
:101B40000BF7D21B03FB0CF761EB07010CFB0EF745
:101B5000B0EB074072EB17420CFB08F734BFA2EB67
:101B60000742B2EB074261EB17414FEA8C554FEA4F
:101B7000910704EB9C2406FB07FC4FEA1C4C0CFB72
:101B80000BF7B0EBC74072EB573203FB0CF734BFD7
:101B9000A2EBC742B2EBC74261EB57310CFB0EF729
:101BA000B0EBC70072EB57720CFB08F734BFA2EB27
:101BB000C702B2EBC70261EB577115EB4C254FEA38
:101BC000816141EA92114FEA82624FEAD13742EADB
:101BD000901206FB07FC44F100044FEA80604FEAD4
:101BE0001C4C0CFB0BF7D21B03FB0CF761EB070142
:101BF0000CFB0EF7B0EB074072EB17420CFB08F73B
:101C000034BFA2EB0742B2EB074261EB174115EB81
:101C10001C154FEA813141EA92414FEA823242EA91
:101C200090424FEA80304FEA0C7644F1000448EAD3
:101C300003434EEA0B484FF0000EB2EB080C71EB79
:101C4000030724BF624639464EEB0E0E4FF0000BE1
:101C50000018524149414BEB0B0BB2EB080C71EBF6
:101C600003077BF1000B24BF624639464EEB0E0E94
:101C70004FF0000B0018524149414BEB0B0BB2EBFC
:101C8000080C71EB03077BF1000B24BF6246394659
:101C90004EEB0E0E51EA020718BF46F0010616EB96
:101CA0000E7655F1000254F1000103D5BDE889011B
:101CB000BDE80088BDE88901BDE80048B619524179
:101CC00041EB0101A3F10103704780807F7E7D7CA1
:101CD0007B7A7978777676757473727171706F6EBE
:101CE0006E6D6C6C6B6A6A69686867666665646469
:101CF000636362616160605F5F5E5E5D5D5C5C5BF3
:101D00005B5A5A5959585857575656555555545461
:101D1000535352525251515050504F4F4F4E4E4DBF
:101D20004D4D4C4C4C4B4B4B4A4A4A49494948480B
:101D3000484747474746464645454544444444434B
:101D400043434342424242414141002B26D4770063
:101D500021D01CB54FEA370703B44FF010004FF005
:101D600010010DF0C3F80FBCBDE810400BF1010BE2
:101D7000BBF1010F08BF5FEA170722BF12F1010292
:101D800011F101014FF0004143F1000300F0004068
:101D900043EA00007047F9D35708DAE746EA0646F7
:101DA00013F1400F4FEA16461FDD13F1200FDFBF7E
:101DB00016430A46002120335B42C8D0C3F12007F6
:101DC00046EA064602FA07F74FEA164646EA0706CB
:101DD000C3F1200722FA03F201FA07F721FA03F10F
:101DE0004FF0000342EA0702B1E746EA020646EA7C
:101DF00006464FEA164646EA0106BCBF46EA0646D4
:101E0000360C4FF000034FF000024FF000019EE748
:101E10002DE9C048934630B491E8380007C831EA4C
:101E2000400C48BF34EA430C03D5FFF7F2FDFFF73F
:101E30008CFFF0BCBDE800882DE9C048934630B463
:101E400091E8380007C810F0804F08BF13F0804FAA
:101E500003D100F005F8FFF778FFF0BCBDE800887B
:101E600020F07F4780EA030023F07F4C07EB0C0350
:101E7000A3F57C5300F00040A3F1FE0392F0000FA5
:101E800000F0B38095F0000F00F077802DE9014954
:101E90004FEA11404FEA144621EA004800FB06FCD5
:101EA00024EA064708FB06F607FB08F800FB07F7DD
:101EB00018EB06484CEB164C4FEA124B18EB074850
:101EC0004FEA15464CEB174022EA0B4E0BFB06FC83
:101ED00025EA06470EFB06F607FB0EFE0BFB07F78F
:101EE0001EEB064E4CEB164C4FF000061EEB074E59
:101EF0004CEB174B18EB0B0840F1000018EB0E0BE6
:101F000058EB000840F100008F1A4FF000013CBF71
:101F1000C943661B14BFB5EB040C00213CBFC94389
:101F2000F61B4FEA17444EEA8E0E27EA04454FEAA5
:101F30001C4704FB07622CEA074C05FB07F70CFB68
:101F400005F604FB0CFC16EB074642EB174216EBBA
:101F50000C4642EB1C421BEB060658EB02024141C9
:101F600046EA9E0601D5BDE80189B619524141EB0A
:101F70000101A3F10103BDE801894FEA14454FEACD
:101F8000114724EA054621EA074C05FB07F406FB46
:101F900007F70CFB06F105FB0CFC11EB074144EBCA
:101FA00017444FEA124711EB0C4144EB1C4422EA60
:101FB000074C05FB07F206FB07F70CFB06F605FBD3
:101FC0000CFC16EB074642EB174216EB0C4642EBB5
:101FD0001C456A1854F1000148BF7047B6195241B8
:101FE00041EB0101A3F10103704795F0000F37D0D9
:101FF0004FEA11424FEA144721EA024624EA074C0D
:1020000002FB07F106FB07F70CFB06F402FB0CFCD6
:1020100014EB074441EB17414FEA154714EB0C440E
:1020200041EB1C4125EA074C02FB07F506FB07F7CD
:102030000CFB06F602FB0CFC16EB074645EB1745BE
:1020400016EB0C4645EB1C42121951F1000148BF3A
:102050007047B619524141EB0101A3F101037047EA
:102060004FEA14454FEA114724EA054621EA074C96
:1020700005FB07F106FB07F70CFB06F24FF0000625
:1020800005FB0CFC12EB074241EB174112EB0C4233
:1020900051EB1C4148BF7047921841EB0101A3F17D
:1020A00001037047CA430260704721B1826842F061
:1020B0000102826003E0826822F0010282607047C0
:1020C0000021084A1168084A1140D0E900231A4348
:1020D00083681A43C3681A431143044AC2F80413BD
:1020E0007047000004230140E030FCFF0020014065
:1020F0000146C86C80B270470246002013680B404E
:102100000BB1012000E000207047000030B502460E
:10211000002000235068104C20400D790C6844EAE0
:1021200005242043506090680C4C2040D1E90354B2
:102130002C438D682C434D7944EA4504204390603C
:10214000D06A20F470000C7D641EE4B2234340EAA0
:102150000350D06230BD0000FFFEFFFCFDF7FFC062
:10216000F0B504460D4600200021092D11DDE06880
:10217000A5F10A0606EB4607072606FA07F188438B
:10218000A5F10A0606EB460603FA06F10843E060ED
:102190000CE0206905EB4507072606FA07F188439E
:1021A00005EB450603FA06F108432061072A0FDA1A
:1021B000606B561E06EB86071F2606FA07F188435A
:1021C000561E06EB860605FA06F10843606322E018
:1021D0000D2A0FDA206BD61F06EB86071F2606FA9C
:1021E00007F18843D61F06EB860605FA06F1084379
:1021F000206310E0E06AA2F10D0606EB86071F26B9
:1022000006FA07F18843A2F10D0606EB860605FAE9
:1022100006F10843E062F0BD816841F080418160D1
:10222000704710B52DED028BB0EE408AB0EE480A33
:1022300004F0E4FCBDEC028B10BD10B52DED028B5B
:10224000B0EE408AF0EE608AF0EE680AB0EE480A1E
:1022500004F06AFDBDEC028B10BD10B52DED028BB4
:10226000B0EE408AB0EE480AFEF7ECF8BDEC028B07
:1022700010BDF0EE400AF5EEC00AF1EE10FA02DDF4
:10228000B0EE600A7047B1EE600AFBE718B19FED4F
:10229000020A80ED000A70470000000018B19FEDAF
:1022A000020A80ED000A7047DF8FB44170B52DED52
:1022B0000C8B84B006460C4615469FED990AF0EE4D
:1022C000408A9FED970AB0EE409A9FED950AF0EE96
:1022D00040BA9FED930AF0EE409A9FED910AB0EE5E
:1022E00040AA0EB104B11DB904B0BDEC0C8B70BD99
:1022F0008C48FFF7CBFF8C48FFF7D0FF8A48D0ED22
:10230000000A9FED8A1A60EE810AB0EE600A00F0C2
:1023100039F9F0EE408A28EEA80AF0EE408A8248A9
:10232000D0ED000AB0EE001A60EE810A9FED7F1A30
:1023300060EE810AB0EE600A00F024F9B0EE409A37
:1023400029EE090AB0EE409ADFED790AB7EE000AED
:1023500000EEA80ADFED770A00EEC90ADFED760A83
:1023600020EE200A754880ED000A6E4890ED000AC4
:10237000DFED730A80EE201AB7EE000A31EE000A94
:1023800020EE000A6D48D0ED000A80EE801A6D48FC
:1023900080ED001A94ED000AB5EEC00AF1EE10FAD5
:1023A0000DD194ED010AB5EEC00AF1EE10FA06D196
:1023B00094ED020AB5EEC00AF1EE10FA46D09FED98
:1023C000580AB0EE408A0020019002900390D4EDAC
:1023D000000A60EEA00A94ED011AD4ED011A41EE54
:1023E000210A94ED021AD4ED021A41EE210AB0EE50
:1023F000600A00F0A9F8B0EE408A94ED000A20EEE1
:10240000080A8DED010A94ED010A20EE080A8DED0F
:10241000020A94ED020A20EE080A8DED030ADDEDB2
:10242000010AF1EE600AB0EE600AFFF7FAFEF0EE84
:10243000409A9DED031AF0EE410A9DED021AB0EEAE
:10244000410AFFF7FAFEB0EE40AA07E09FED340A1A
:10245000F0EE409A9FED320AB0EE40AA95ED000AE8
:10246000B5EEC00AF1EE10FA0DD195ED010AB5EE08
:10247000C00AF1EE10FA06D195ED020AB5EEC00AD7
:10248000F1EE10FA3CD0B0EE690A00F07BF8B0EE45
:10249000408AB0EE690AFFF7E0FEB0EE40DAB0EE37
:1024A0004A0A00F06FF8F0EE40AAB0EE4A0AFFF7D1
:1024B000D4FEB0EE40BA28EE2A0AD5ED010A20EE8D
:1024C000200AD5ED000A0DEE200A68EE0B0A95ED04
:1024D000021A00EE810AB0EE40CA95ED010A20EE24
:1024E0000B0AD5ED020A0AEEE00AF0EE40CAF0EE61
:1024F0006C0AB0EE4C0AFFF7A0FEF0EE40BA03E023
:102500009FED070AF0EE40BAB0EE4A1AF0EE690A03
:10251000B0EE6B0A304605F00FFC00BFE4E60000A9
:1025200000000000300200203402002035FA8E3C0A
:10253000C1BFAD3B9DF8C5362F7C1C413802002041
:10254000506CC24A3C020020F0EE400AF6EE001A3F
:1025500060EEA11AB0EE611AB0EE600A10EE100A39
:102560000749A1EB600000EE100A21EE002AF7EE09
:10257000081A42EE401A61EE801AB0EE610A704706
:10258000DF59375F10B52DED028BB0EE408AB0EE0B
:10259000480AFDF793FFBDEC028B10BD2DE9F04119
:1025A0002DED028B9AB00546B0EE408A0E461746D6
:1025B0009846002017901890199014901590169036
:1025C0004DB146B13FB1B8F1000F04D0B5EEC08AAD
:1025D000F1EE10FA05D100201AB0BDEC028BBDE877
:1025E000F08196ED000A8DED170A96ED010A8DED4A
:1025F000180A96ED020A8DED190A97ED000A8DED85
:10260000140A97ED010A8DED150A97ED020A8DED7A
:10261000160A17AA14A9284605F068F9402104A84B
:10262000FEF704F80020009001900290039000242F
:1026300017A904A809F04CFC00BF30E004A800EB87
:10264000041090ED000AD5ED000A20EE200A04A83F
:1026500000EB0410D0ED010A95ED011A00EE810A9D
:1026600004A800EB0410D0ED020A95ED021A00EE6A
:10267000810A04A800EB0410D0ED030A95ED031ABB
:1026800000EE810A20EE080AF0EE000A80EE201A21
:10269000684600EB840080ED001A601CC4B2042C74
:1026A000CCDB002410E005EB840090ED000A6846C6
:1026B00000EB8400D0ED000A30EE200A05EB840028
:1026C00080ED000A601CC4B2042CECDB284608F044
:1026D00059FC012080E7000080ED010AC0ED020AEC
:1026E00080ED031A80ED0B2AC0ED0A1AD1ED004AE5
:1026F000C0ED1A4AD1ED014AC0ED1B4AD1ED014AA5
:1027000091ED005A74EEC54AC0ED1C4AD1ED014A64
:1027100091ED005A74EE854AB0EE005AC4EE855A27
:10272000C0ED1D5ADFED224AC0ED0C4ADFED204A14
:10273000C0ED0D4ADFED1E4AC0ED0E4ADFED1C4A2A
:10274000C0ED0F4ADFED1A4AC0ED134ADFED184A1B
:10275000C0ED144ADFED164AC0ED154ADFED144A0C
:10276000C0ED164ADFED124AC0ED124ADFED104A05
:10277000C0ED174ADFED0E4AC0ED184ADFED0C4AF6
:10278000C0ED194AF7EE004AC0ED074AF7EE004ADD
:10279000C0ED084AF7EE004AC0ED094AC0ED202A14
:1027A00080ED213AC0ED1E3A80ED1F4A70470000CF
:1027B0000000000070B52DED068B0446B0EE408A97
:1027C000F0EE608A0D4694ED100A84ED110A94ED46
:1027D000040A84ED100A94ED200AD4ED100A20EECC
:1027E000200AD4ED200AB7EE001A71EE600A00EE5E
:1027F000880A84ED040AC4ED058A2946204606F0BD
:102800006FF994ED170A84ED120A94ED010AD4EDE4
:10281000120A20EE200A84ED0C0AD4ED170AB0EE5D
:10282000600A204605F010FA84ED080A94ED130AB8
:10283000D4ED170A94ED081A00EE810A84ED130A0C
:1028400094ED020AD4ED130A20EE200AF0EE409A2D
:1028500094ED0B0AF0EE400AB0EE690A07F033FD82
:1028600084ED0D0A012D10D1D4ED170A94ED181A3C
:1028700070EEC10AB0EE600A9FED491ADFED490A19
:1028800007F019F984ED140A07E094ED170AD4ED66
:10289000180A30EE600A84ED140A94ED030AD4EDB0
:1028A000140A20EE200AD4ED210AB7EE001A71EEC8
:1028B000600A20EE200AD4ED210A94ED151A00EEEC
:1028C000810A84ED0E0A94ED0E0A84ED150A012D9D
:1028D0002CD1D4ED040A94ED101A70EEC10AB0EEBA
:1028E000600A9FED2F1ADFED2F0A07F0E4F8D4ED10
:1028F0001E0A20EE20AAD4ED040A94ED101AF0EE80
:10290000001A41EEC10A94ED111A70EE810AB0EE80
:10291000600A9FED231ADFED230A07F0CCF8D4ED0F
:102920001F0A00EE80AA84ED0FAA1BE094ED040AB2
:10293000D4ED100A30EE600AD4ED1E0A20EE200A13
:10294000D4ED040A94ED101AF0EE001A41EEC10A1B
:1029500094ED111A70EE810A94ED1F1A01EE200A0F
:1029600084ED0F0A94ED0C0AD4ED0D0A30EE200A26
:10297000D4ED0E0A30EE200AD4ED0F0A30EE209A84
:1029800094ED0A0AF0EE400AB0EE490A07F09BFC0B
:1029900084ED060A94ED060ABDEC068B70BD0000BE
:1029A000DB0F4940DB0F49C038B507F013F809F0D9
:1029B00085FB06F0E7FF08F027FB07F0AFFC0024DB
:1029C00008E0204607F0DEFC40F2C52006F0C4F91E
:1029D000601CC4B2042CF4DB002005231A4601213C
:1029E000009000F037F8002005231A4601210090DE
:1029F00000F0D0F8B42144F6206003F0F7FB40F279
:102A0000DC51064803F003FE08F0A0FF02F06EFF61
:102A100007F0CCFA05F058FB38BD00000004014077
:102A200000BFFEE710B50221084800F09FFA58B138
:102A30000221064800F0C2F9054A0021034800F0CF
:102A4000B8FB034800F0C0FC10BD0000006400406B
:102A5000A83F01202DE9F0418AB004460D461646F4
:102A60001F46DDF840800121082002F067FD0121AA
:102A7000480602F073FD0121480602F07FFD0021A7
:102A80004FF0007002F07AFD0320089002208DF8CC
:102A9000240000208DF8260003208DF82500012059
:102AA0008DF8270008A92D4801F05AFD09220021C0
:102AB0002A4801F09DFD09220121284801F098FDD6
:102AC00000208DF81A0001208DF81B0000208DF8E1
:102AD0001C008DF81D008DF81E008DF81F008DF86C
:102AE00016808DF817408DF818608DF81950ADF8E4
:102AF000147005A91A4800F0D2FA00208DF80E00D3
:102B00008DF80F0001208DF810000020ADF80400B2
:102B1000ADF80600ADF80800ADF80A00ADF80C00FD
:102B200001208DF8110001A800F09CF9012202217A
:102B30000B4800F0ABFA14208DF8000004208DF84B
:102B4000010000208DF8020001208DF80300684686
:102B500002F086FB00200AB0BDE8F081000C0240C4
:102B60000064004010B50221084800F0FFF958B198
:102B70000221064800F022F9054A0021034800F02E
:102B800018FB034800F020FC10BD00000068004066
:102B9000BC3F01202DE9F0418AB004460D4616469F
:102BA0001F46DDF840800121022002F0C7FC012110
:102BB000880602F0D3FC0121880602F0DFFC002128
:102BC0004FF0806002F0DAFC4FF440500890022091
:102BD0008DF8240000208DF8260003208DF82500B4
:102BE00001208DF8270008A92D4801F0B9FC092221
:102BF0000C212B4801F0FCFC09220D21284801F092
:102C0000F7FC00208DF81A0001208DF81B00002031
:102C10008DF81C008DF81D008DF81E008DF81F002A
:102C20008DF816808DF817408DF818608DF81950C2
:102C3000ADF8147005A91B4800F031FA0E208DF88C
:102C40000E0000208DF80F0001208DF810000020EC
:102C5000ADF80400ADF80600ADF80800ADF80A00C4
:102C6000ADF80C0001208DF8110001A800F0FAF871
:102C7000012202210B4800F009FA40208DF80000E3
:102C800004208DF8010000208DF8020001208DF84D
:102C90000300684602F0E4FA00200AB0BDE8F081C3
:102CA0000004024000680040F0B585B004460D46BF
:102CB00016461F4640F25220009000208DF8080072
:102CC0008DF8090008208DF80A00200A8DF80B0005
:102CD000E1B28DF80C10290A8DF80D10E9B28DF8CB
:102CE0000E10310A8DF80F10F1B28DF81010390A5C
:102CF0008DF81110F9B28DF812106946024800F0F3
:102D0000D0FA05B0F0BD000000640040F0B585B019
:102D100004460D4616461F464FF4007000900020F2
:102D20008DF808008DF8090008208DF80A00200AA7
:102D30008DF80B00E1B28DF80C10290A8DF80D10FA
:102D4000E9B28DF80E10310A8DF80F10F1B28DF83E
:102D50001010390A8DF81110F9B28DF81210694669
:102D6000024800F09EFA05B0F0BD00000068004087
:102D70002DE9F04104460D4616461F4640F2FF106D
:102D80000C49086000200872487208208872200AE6
:102D9000C87208460473290A41738573310AC173E6
:102DA00006743912417487740146034800F079FAB9
:102DB000BDE8F081943F012000640040B1F5007F40
:102DC0003AD00FDC202928D006DC01291CD00429A8
:102DD0001DD0082940D11DE0402921D0B1F5807FC8
:102DE0003AD126E0B1F5004F31D006DCB1F5806F65
:102DF00025D0B1F5006F2FD124E0B1F5803F12D07E
:102E0000B1F5003F28D111E0154A826025E0082283
:102E1000C26022E01022C2601FE0082202611CE0B2
:102E20001022026119E00822426016E0102242607E
:102E300013E00422426010E0042242600DE004220C
:102E400042600AE0002282610422426005E0002222
:102E500082610422426000E000BF00BF70470000B2
:102E60000101010010B50021837A012202FA03F169
:102E70003D4A126842F001023B4B1A603A4A1C324A
:102E800012688A43384B1C331A60027BCAB9364A2F
:102E90000C3212688A43344B0C331A604288C38860
:102EA00042EA0343304A4032847A42F8343002889E
:102EB000838842EA03432C4A4032847A02EBC402FC
:102EC0005360027B012A19D1274A0C3212680A4347
:102ED000254B0C331A604288038842EA0343224A96
:102EE0004032847A42F83430C288838842EA03430D
:102EF0001D4A4032847A02EBC4025360C27A3AB966
:102F0000194A121D12688A43174B1B1D1A6006E0EE
:102F1000154A121D12680A43134B1B1D1A600289C1
:102F200032B9114A143212688A430F4B14331A60B3
:102F30000289012A06D10C4A143212680A430A4B4C
:102F400014331A60427B012A06D1074A1C321268E8
:102F50000A43054B1C331A60034A126822F001022F
:102F6000014B1A6010BD00000066004070B50446B9
:102F70000D46002660692840002871D0B5F5807F95
:102F80005CD010DC082D35D006DC012D20D0022DC0
:102F900024D0042D72D127E0102D31D0202D35D032
:102FA000402D6BD138E0B5F5004F60D009DCB5F5A8
:102FB000007F49D0B5F5806F4CD0B5F5006F5DD17D
:102FC0004FE0B5F5803F2DD0B5F5003F56D12FE04D
:102FD000A0682D4900F018FB064651E0E068032187
:102FE00000F012FB06464BE0E068082100F00CFB05
:102FF000064645E0E068102100F006FB06463FE08B
:103000002069032100F000FB064639E02069082111
:1030100000F0FAFA064633E02069102100F0F4FAD5
:1030200006462DE06068082100F0EEFA064627E02B
:103030006068102100F0E8FA064621E0A06901214D
:1030400000F0E2FA06461BE0A069022100F0DCFA7B
:10305000064615E0A069042100F0D6FA06460FE006
:103060000FE0A069702100F0CFFA064608E0606822
:10307000042100F0C9FA064602E0FFE7002600BF7F
:1030800000E00026304670BD010101001AB143691D
:103090000B43436102E043698B434361704730B5A2
:1030A000024600200023146824F00204146014680F
:1030B00044F00104146000E05B1C546804F0010457
:1030C0001CB94FF6FF74A342F6D1546804F0010412
:1030D0000CB900206CE08C79012C04D1146844F008
:1030E0008004146003E0146824F080041460CC7938
:1030F000012C04D1146844F04004146003E0146807
:1031000024F0400414600C7A012C04D1146844F0BB
:103110002004146003E0146824F0200414604C7A46
:10312000012C04D1146844F01004146003E0146806
:1031300024F0100414608C7A012C04D1146844F03B
:103140000804146003E0146824F008041460CC7AC6
:10315000012C04D1146844F00404146003E01468E2
:1031600024F0040414608C78A407CD7844EA056444
:103170000D7944EA05444D7944EA05540D886D1EE5
:103180002C43D461146824F001041460002300E08F
:103190005B1C546804F001041CB14FF6FF74A34299
:1031A000F6D1546804F001040CB1002000E00120C5
:1031B00030BD10B500F5D87303EB01131B6803F0A5
:1031C00004031372137A53B900F5D87303EB011398
:1031D0001B6840F2FF7404EA5353136009E000F5E2
:1031E000D87303EB01131B686FF0604404EAD30348
:1031F000536000F5D87303EB01131B6803F002035F
:10320000537200F5D87303EB01135B6803F00F03EF
:10321000937200F5D87303EB01135B681B0AD37438
:1032200000F5D87303EB01139B68D37200F5D873D4
:1032300003EB01139B681C0A147300F5D87303EBAE
:1032400001139B681C0C547300F5D87303EB011336
:103250009B681B0E937300F5D87303EB0113DB68B7
:10326000D37300F5D87303EB0113DB681C0A1474E5
:1032700000F5D87303EB0113DB681C0C547400F5E4
:10328000D87303EB0113DB681B0E937421B9C36879
:1032900043F02003C36003E0036943F020030361AC
:1032A00010BD10B502460020936803F08063B3F1AF
:1032B000806F00D110E0936803F00063B3F1006FFA
:1032C00001D1012008E0936803F08053B3F1805FDF
:1032D00001D1022000E00420042874D002F5C0735C
:1032E00003EB00131B6803F0010402F5C07303EB4A
:1032F00000131C600B7A7BB94B7A0C8843EA445369
:1033000002F5C07404EB00142468234302F5C07472
:1033100004EB0014236010E00B7A4C6843EAC4030A
:103320004C7A234302F5C07404EB00142468234351
:1033300002F5C07404EB001423608B7A03F00F03D2
:103340008B7202F5C07303EB00135B6823F00F046C
:1033500002F5C07303EB00135C6002F5C07303EB6E
:1033600000135B688C7A234302F5C07404EB0014ED
:1033700063608B7B1C064B7B44EA03440B7B44EA73
:103380000323CC7A234302F5C07404EB0014A3603A
:103390008B7C1C064B7C44EA03440B7C44EA0323ED
:1033A000CC7B234302F5C07404EB0014E36002F508
:1033B000C07303EB00131B6843F0010402F5C073F4
:1033C00003EB00131C6010BD40F205230168CA1A0C
:1033D000994210D008DCA1F2012100295FD0012917
:1033E0007BD0022978D194E0012A20D0022A3AD059
:1033F000502AF7D1A9E07D49098809B27B4A118199
:10340000017BC27A41EA0221784A1180827B417BAA
:1034100042EA012109B2754A9180027CC17B42EAED
:10342000012109B2714A5180417C9171DBE0704900
:10343000098809B26E4A1181017BC27A41EA0221F0
:103440006B4A1180827B417B42EA012109B2684AC2
:103450009180027CC17B42EA012109B2644A518019
:10346000417C9171BFE06349098809B2614A1181C9
:10347000017BC27A41EA02215E4A1180827B417B54
:1034800042EA012109B25B4A5180027CC17B42EAD7
:10349000012109B2574A9180417C9171A3E05649BC
:1034A000098809B2544A1181017BC27A41EA02219A
:1034B000514A1180827B417B42EA012109B24E4A86
:1034C0005180027CC17B42EA012109B24A4A9180C3
:1034D000417C917187E000E084E04849098809B2A5
:1034E000464A1181017BC27A41EA0221434A118096
:1034F000827B417B42EA012109B2404A5180027C31
:10350000C17B42EA012109B23C4A9180417C917120
:1035100069E03B49098809B2394A1181017BC27AC5
:1035200041EA0221364A1180827B417B42EA012135
:1035300009B2334A5180027CC17B42EA012109B2BF
:103540002F4A9180417C91714DE0C17A01F00101D7
:103550002C4A1170C17AC1F340015170C17AC1F394
:1035600080115171C17AC9099171C17AC1F34011B9
:1035700011B90121117106E0C17AC1F3401111B1F5
:103580006521204A1171C17A01F00C0121B1042991
:1035900006D008290CD107E00F211A4AD1700BE0A0
:1035A0001221184AD17007E01E21164AD17003E09B
:1035B0000F21144AD17000BF00BFC17A01F0100181
:1035C00011B1102908D103E00A210E4A917007E0D9
:1035D00010210C4A917003E00A210A4A917000BF41
:1035E00000BF00E000BF00BF70470000583F01204F
:1035F000623F01206C3F0120763F0120803F012087
:103600008A3F0120170200200246002002EA01033F
:103610000BB1012000E000207047000010B50C49FC
:103620000C4800F065F988B100210A4800F078F8EC
:103630000949084800F040F80849064800F056F8E3
:1036400005F0F8F90121034800F06AF810BD000008
:103650000008001028640240400F0010008800108D
:1036600010B51049104800F043F9C8B10D490E4893
:1036700000F022F806F0A6FA09F0A6FD01280FD006
:103680000A490B48006808F055FF0848006838B13F
:103690004FF0805007490860BFF34F8FBFF36F8F23
:1036A00010BD000000080020886402406C0100206A
:1036B000EC00002004ED00E00246094B9A4201D2E2
:1036C000084801E00648103801F000531BB1064BD2
:1036D0000B40C36002E0044B0B4083607047000066
:1036E00010640240006002407D0F7D0F0246094BCE
:1036F0009A4201D2084801E00648103801F0005310
:103700001BB1064B0B40C36002E0044B0B408360CF
:103710007047000010640240006002407D0F7D0F82
:1037200021B1026842F00102026003E0026822F067
:103730000102026070470000016821F00101016090
:103740000021016041608160C1600161212141610E
:103750004A49884204D13D21484A103A91608CE0A0
:1037600046491831884205D14FF47461434A103AF2
:10377000916082E041493031884205D14FF47411A3
:103780003E4A103A916078E03C494831884205D180
:103790004FF07461394A103A91606EE037496031F8
:1037A000884204D13649354A103AD16065E0334940
:1037B0007831884204D13349304A103AD1605CE014
:1037C0002E499031884204D12F492C4A103AD160B9
:1037D00053E02A49A831884205D14FF03D51274A8C
:1037E000103AD16049E02949884204D13D21274A55
:1037F000083A116041E025491831884205D14FF45B
:103800007461224A083A116037E020493031884219
:1038100005D14FF474111D4A083A11602DE01B497F
:103820004831884205D14FF07461184A083A116056
:1038300023E016496031884204D11149134A121F0E
:1038400011601AE011497831884204D10D490F4ABC
:10385000121F116011E00D499031884204D10A49CC
:103860000A4A121F116008E00849A831884204D1B1
:103870004FF03D51054A121F116070471060024021
:103880003D000020400F002000003D201064024059
:1038900021B1026842F48022026003E0026822F44F
:1038A00080220260704722B1036843F40023036062
:1038B00003E0036823F400230360016170470146BD
:1038C00000200A6802F001020AB1012000E0002095
:1038D00070470146486880B27047014600200A6878
:1038E00002F400220AB1012000E00020704700002D
:1038F00030B503460A46002000240B4DAB4201D2EE
:103900000A4901E00849103902F000550DB14C6830
:1039100000E00C68064D2C4004EA02050DB10120C0
:1039200000E0002030BD0000106402400060024052
:103930007D0F7D0F10B501F080034BB122B14369BB
:1039400043F08003436103E0436923F08003436154
:1039500080290BD02AB1036801F01E0423430360C1
:1039600004E0036801F01E04A343036010BD0000DF
:1039700010B500220268134B1A40CC680B68234331
:103980004C6923438C692343CC6923430C6A23434A
:103990004C6A23438C6A23434C6B23438C6B234335
:1039A0001A430260426922F00702D1E90B34234333
:1039B0001A4342610B6943604B6883608B68C36044
:1039C00010BD00003F801CF041607047704710B58B
:1039D0004FF4807000F012F840B14FF4807000F0A6
:1039E00007F806F0F7F8172002F06EF810BD000097
:1039F0000149086070470000143C01400146002066
:103A0000034A12680A400AB1012000E00020704712
:103A1000143C0140002123498279002A3AD00A4609
:103A2000126803689A430B461A600A1D12680368FD
:103A30009A430B1D1A60027911440A6803681A43FD
:103A40000A60184A0832126803689A43154B083313
:103A50001A601A1D126803689A43124B0C331A60DD
:103A60004279102A0ED11A1F126803681A430D4BAF
:103A700008331A601A1D126803681A43094B0C3385
:103A80001A600DE00749427911440A6803681A4335
:103A90000A6005E0027911440A6803689A430A60E3
:103AA00070470000003C014030B10749096841F40B
:103AB0008061054A116005E00349096821F48061CD
:103AC000014A116070470000003C024070B5044696
:103AD0000A460026092502B909E0012A01D1160289
:103AE00005E0022A01D1160201E04FF4407600F011
:103AF0009FF80546092D28D11548006820F440702C
:103B000013490860084600683043086008460068AA
:103B100020F0F80008600846006844F002010843FD
:103B20000B4908600846006840F48030086000F0E7
:103B30007FF805460648006820F002000449086046
:103B40000846006820F0F8000860284670BD0000B4
:103B5000103C024009201349096801F48031B1F595
:103B6000803F01D101201CE00E49096801F01001DD
:103B700009B1062015E00B49096801F4807109B10B
:103B800002200EE00749096801F0E00109B10720B1
:103B900007E00449096801F0020109B1082000E0CA
:103BA000092070470C3C02400348006840F0004088
:103BB0000149086070470000103C024030B50246E1
:103BC0000C46092500F034F80546092D19D10E4898
:103BD000006820F440700C4908600846006840F412
:103BE000007008600846006840F00100086014603A
:103BF00000F01EF805460448006820F00100024964
:103C00000860284630BD0000103C024005480068AE
:103C100000F0004028B1044802490C39086003480C
:103C200008607047103C024023016745AB89EFCD27
:103C300008B509200090FFF78DFF009002E0FFF724
:103C400089FF00909DF800000128F8D09DF8000041
:103C500008BD000010B5044604B910BD207C20B991
:103C600004F10C0005F07AFC50E0207C012825D1FD
:103C700094ED0B1AF0EE410A94ED0D1AB0EE410AE4
:103C800001215148FEF796FD84ED100A94ED0F1ABC
:103C9000F0EE410A94ED101AB0EE410A00214B48B3
:103CA000FEF788FD84ED130A94ED130ABDEEC00AF9
:103CB00010EE100A01B2A4F8501027E0207C022870
:103CC00024D194ED071AF0EE410A94ED091AB0EEF2
:103CD000410A01213E48FEF76DFD84ED100A94ED86
:103CE0000F1AF0EE410A94ED101AB0EE410A0021CD
:103CF0003648FEF75FFD84ED130A94ED130ABDEE1E
:103D0000C00A10EE100A01B2A4F850105820005D4D
:103D100020B904F1540005F021FC52E05820005D68
:103D2000012825D194ED1D1AF0EE410A94ED1F1AD9
:103D3000B0EE410A01212748FEF73CFD84ED220A3E
:103D400094ED211AF0EE410A94ED221AB0EE410AE8
:103D500000212148FEF72EFD84ED250A94ED250A69
:103D6000BDEEC00A10EE100A01B2A4F8981028E0C7
:103D70005820005D022824D194ED191AF0EE410A72
:103D800094ED1B1AB0EE410A01211448FEF712FD12
:103D900084ED220A94ED211AF0EE410A94ED221AE4
:103DA000B0EE410A00210C48FEF704FD84ED250A1F
:103DB00094ED250ABDEEC00A10EE100A01B2A4F877
:103DC000981000BF49E7000058370120483601200D
:103DD000D0360120C0350120B03401203835012013
:103DE00010B52DED028B044614B9BDEC028B10BD4D
:103DF00094F89C109D2001552068007D00F0800003
:103E000018B1012084F89C0002E0002084F89C0096
:103E100094F89C00012809D19D20005D30B99E20B6
:103E2000005D401CC1B29E20015502E09E20015D54
:103E300001559E20005D00F0010018B900219F206F
:103E4000015507E09E20005D00F0010010B1012146
:103E50009F200155A020015DA12001552068007D13
:103E600000F0200018B10121A020015502E000213E
:103E7000A0200155A020005D012808D1A120005DEF
:103E800028B9A220005D401CC1B2A2200155A22089
:103E9000005D00F0010018B90021A320015507E0E2
:103EA000A220005D00F0010010B10121A320015506
:103EB000606890ED020A84ED1D0A5A22115B626D62
:103EC000108805F04BFEB1EE400A84ED190AA06897
:103ED00090ED000A84ED210A94ED1D0ADFED380A09
:103EE00020EE200A84ED1E0A94ED190ADFED340A53
:103EF00020EE200A84ED1A0A94ED1F0ADFED300A45
:103F000020EE200A84ED200A94ED1B0ADFED2C0A36
:103F100020EE200A84ED1C0A606890ED000A84ED12
:103F20000B0A628AE3681B8999B2E368188809F072
:103F3000A5FBB1EE400A84ED070AD4ED190A9FED06
:103F4000211A60EE810AB0EE600AFCF77BFAA068E5
:103F5000D0ED020A20EE208AD4ED190A9FED191A3D
:103F600060EE810AB0EE600AFCF7A8FAA068D0ED16
:103F7000000A00EE608A84ED0F8A94ED0B0ADFEDF3
:103F8000100A20EE200A84ED0C0A94ED070ADFEDFA
:103F90000C0A20EE200A84ED080A94ED0D0ADFEDEC
:103FA000080A20EE200A84ED0E0A94ED090ADFEDDE
:103FB000040A20EE200A84ED0A0A00BF15E700007B
:103FC000E12E654235FA8E3C10B5044604F0A8FF98
:103FD000E06004F091FF6065E06800885E49086079
:103FE00004F07CFF606004F07DFFA06005F0A0F8A5
:103FF000206007F04DF8C4F8A4000021617421741A
:1040000059200155582001559FED544ADFED533A90
:104010009FED523ADFED512A51499FED522ADFEDD3
:10402000521AB2EE041AF7EE000A9FED500A5048F9
:10403000FEF752FB9FED494ADFED483A9FED473AC4
:10404000DFED462A4B49B1EE082AF2EE041A9FED45
:104050004A1ADFED4A0A9FED4A0A4A48FEF73CFB3E
:104060009FED3E4ADFED3D3A9FED3C3ADFED3B2AC6
:104070004049B1EE082AF2EE041AB3EE041ADFED5D
:10408000420A9FED420A4248FEF726FB9FED334A63
:10409000DFED323A9FED313ADFED302A3D499FEDB9
:1040A000312ADFED311A9FED3C1ADFED3C0A9FED1E
:1040B0003C0A3C48FEF710FB9FED284ADFED273A0B
:1040C0009FED263ADFED252A3749B1EE002AF3EEBF
:1040D000041A9FED291ADFED290A9FED340A3448AE
:1040E000FEF7FAFA9FED1D4ADFED1C3A9FED1B3AF1
:1040F000DFED1A2A2C49B1EE002AF3EE041A9FEDE7
:104100002B1ADFED1E0A9FED1C0A2A48FEF7E4FA7F
:1041100040F6DF11618241F2B8015A200153204676
:10412000FFF75EFE94ED0B0A84ED0D0A94ED070A8D
:1041300084ED090A94ED0F0A84ED100A94ED1D0A2E
:1041400084ED1F0A94ED190A84ED1B0A94ED210AEF
:1041500084ED220A10BD0000840100200000000050
:104160009C01002000409C450060EA4600C05A4582
:1041700048360120A4010020000020428FC2753D76
:104180000000B242D03601200AD7233C00008C4206
:10419000583701208C0100200000FA43CDCCCC3DE3
:1041A00000403545B03401209401002000007042E9
:1041B00038350120C035012000B97047417C61B11C
:1041C000017C51B9B0F9501000EE101AB8EEC00AD7
:1041D00080ED130A80ED120A14E0417C012907D01A
:1041E000017C012904D190ED0B0A80ED0D0A09E054
:1041F000417C022906D0017C022903D190ED070AF7
:1042000080ED090A027C42745921095C69B1582188
:10421000095C51B9B0F9981000EE101AB8EEC00A56
:1042200080ED250A80ED240A18E05921095C012956
:1042300008D05821095C012904D190ED1D0A80EDB8
:104240001F0A0BE05921095C022907D05821095C9B
:10425000022903D190ED190A80ED1B0A58210A5C4E
:1042600059210A5400BFA8E71CB5044604B91CBD77
:104270009FED4E0A8DED010A9FED4C0A8DED000A6F
:104280002246694601A804F061FF207C20B99DED1B
:10429000010A84ED120A32E0207C012816D19F2009
:1042A000005D01280BD1D4F8A400007D012806D1BF
:1042B00004F10C01D4F8A40008F0A8FA1FE09DED69
:1042C000010A04F10C0000F081F818E0207C0228BB
:1042D00015D19F20005D01280BD1D4F8A400007DEA
:1042E000012806D104F10C01D4F8A40008F0E0FA8A
:1042F00005E09DED010A04F10C0000F085F806F0E0
:1043000093FE18B19FED290A84ED090A5820005D3B
:1043100020B99DED000A84ED240A44E05820005D98
:1043200001281ED19F20005D01280BD1D4F8A400E4
:10433000007D012806D104F15401D4F8A40008F04E
:1043400045FA05E09DED000A04F1540000F03EF846
:10435000DFED170A9FED170A04F17C0005F0CAFF94
:1043600021E05820005D02281DD19F20005D01281A
:104370000BD1D4F8A400007D012806D104F154012A
:10438000D4F8A40008F074FA05E09DED000A04F1E9
:10439000540000F039F8DFED060A9FED060A04F13B
:1043A0006C0005F0A7FF00BF61E7000000000000FF
:1043B0008A8E34BF8FC2F53E10B5044604B910BDD5
:1043C000204604F063FF00BFF9E7000010B52DEDB3
:1043D000028B0446B0EE408A14B9BDEC028B10BDCE
:1043E000D4ED0A0A70EE880AB0EE600A9FED041A56
:1043F000DFED040A05F05FFB84ED0A0A00BFECE77D
:10440000DB0F4940DB0F49C010B52DED028B044690
:10441000B0EE408A14B9BDEC028B10BDD4ED060A93
:1044200070EE880AB0EE600A9FED041ADFED040A10
:1044300005F041FB84ED060A00BFECE7DB0F4940C5
:10444000DB0F49C0C92007F0BBFF08F009FA1D487F
:10445000FFF7BAFD07F0B8FA32E01A48FFF7ACFFF1
:104460001848FFF7A9FE1748FFF7BAFC1548FFF7F1
:10447000FBFE1448FFF7EEFB04F0CAFD124908806A
:104480001048B0F85000404200B2104908800D4872
:10449000B0F89800404200B20D49088004F0BEFD1B
:1044A0000C4803880848B0F900200948B0F900100A
:1044B0000648B0F90000FEF75BFC012007F080FF22
:1044C000CBE7000008340120800100207C0100209F
:1044D0007E010020AE01002000B585B00121022040
:1044E00001F02CF80121880301F058F8082101207F
:1044F00001F040FC4FF48070009000208DF8040023
:1045000001208DF8060000208DF8070003208DF8AB
:1045100005006946114800F023F84FF480700290BE
:1045200000208DF80C0008208DF80D0001208DF87A
:104530000E0002A8FFF76EFA17208DF81000052074
:104540008DF8110000208DF8120001208DF8130065
:1045500004A800F085FE05B000BD00000004024084
:10456000F0B50A4600210023002400BF3DE00125EC
:1045700005FA01F3156805EA03049C4234D1056885
:104580004F000326BE40B543056015794E00B54087
:104590000668354305601579012D02D01579022D85
:1045A00016D185684F000326BE40B5438560557916
:1045B0004E00B540866835438560456801268E40CB
:1045C000B5434560456896798E40B6B2354345603F
:1045D000C5684F000326BE40B543C560D5794E007F
:1045E000B540C6683543C560491C1029BFD3F0BD2E
:1045F000F0B5002300244D07ED0E02FA05F3CE10AE
:1046000000F1200555F826504E07F70E0F26BE4044
:10461000B543CF1000F1200646F82750CE1000F128
:10462000200555F8265045EA0304CE1000F1200578
:1046300045F82640F0BD0246002013690B400BB13F
:10464000012000E0002070474183704701837047DC
:1046500042694A4042617047014600205C4A9142EB
:1046600003D2B1F1006F00D3B0E05A4A914204D2B4
:10467000574A914201D30820A8E0574A914204D2F8
:10468000544A914201D31020A0E0544A914204D2EE
:10469000514A914201D3182098E0514A914204D2E4
:1046A0004E4A914201D3202090E04E4A914204D2DA
:1046B0004B4A914201D3282088E04B4A914204D2D0
:1046C000484A914201D3302080E0484A914204D2C6
:1046D000454A914201D3382078E0454A914204D2BC
:1046E000424A914201D3402070E0424A914204D2B2
:1046F0003F4A914201D3482068E03F4A914204D2A8
:104700003C4A914201D3502060E0B1F1016F04D2E4
:10471000394A914201D3582058E0384A914204D294
:10472000B1F1016F01D3802050E0354A914204D2AB
:10473000324A914201D3882048E0324A914204D261
:104740002F4A914201D3902040E02F4A914204D257
:104750002C4A914201D3982038E02C4A914204D24D
:10476000294A914201D3A02030E0294A914204D243
:10477000264A914201D3A82028E0264A914204D239
:10478000234A914201D3B02020E0234A914204D22F
:10479000204A914201D3B82018E0204A914204D225
:1047A0001D4A914201D3C02010E01D4A914204D21B
:1047B0001A4A914201D3C82008E01A4A914204D211
:1047C000174A914201D3D02000E0D8207047000062
:1047D000004000080080000800C000080000010838
:1047E0000000020800000408000006080000080895
:1047F00000000A0800000C0800000E080040100825
:104800000080100800C01008000011080000120805
:1048100000001408000016080000180800001A081C
:1048200000001C0800001E0800BFFEE7F0B50546AA
:10483000059C00207FE093ED050A00EB4006404F09
:1048400007EB8606D6ED000A20EE200AD3ED060A15
:1048500000EB400607EB860696ED011A00EE810A92
:10486000D3ED070A00EB400607EB860696ED021A29
:1048700000EE810A334E06EB8006D6ED000A30EEDC
:10488000200A05EB800686ED000A93ED010A00EB95
:1048900040062D4F07EB8606D6ED000A20EE200AD3
:1048A000D3ED020A00EB400607EB860696ED011AEF
:1048B00000EE810AD3ED030A00EB400607EB860603
:1048C00096ED021A00EE810A204E06EB8006D6ED28
:1048D000000A30EE200A01EB800686ED000A94ED16
:1048E000010A00EB40061A4F07EB8606D6ED000AD8
:1048F00020EE200AD4ED020A00EB400607EB860604
:1049000096ED011A00EE810AD4ED030A00EB400691
:1049100007EB860696ED021A00EE810A0D4E06EBB5
:104920008006D6ED000A30EE200A02EB800686ED06
:10493000000A461CF0B20328FFF67DAFF0BD000070
:10494000F0000020B830012014010020C430012004
:1049500038010020D030012010B52DED028BB0EED3
:10496000408A22480078F8B1DFED210AB0EE480A0B
:10497000204800F0BBFC1F4890ED080AB5EEC00AC5
:10498000F1EE10FA03D29FED1C0A80ED080A1948D7
:1049900090ED080ABCEEC00A10EE100A84B221465F
:1049A000164801F030FE1DE09FED110AB4EEC08AFA
:1049B000F1EE10FA11DD01200C4908709FED100A8C
:1049C0000C4880ED0A0A90ED0A0ABCEEC00A10EE0F
:1049D000101A0A4801F017FE04E041F28731074837
:1049E00001F011FEBDEC028B10BD0000640100203F
:1049F00000001242183201200000000000040040B4
:104A000000401C4508B5072007F0DAFC04F07CFBE9
:104A1000AC49086000BF05F013F90028FBD100BFC6
:104A200004F026FF0028FBD105F028FC044608F01E
:104A300079FBA5490860FFF74FFD1722A349A44859
:104A400001F07CF801221146A24801F0FFF8012292
:104A50000221A04801F0FAF80021102001F01CF812
:104A60002EE100BF4FF0FF31012007F0F7F90128D8
:104A7000F8D199499548401C05F050F99749934859
:104A8000103004F03DFF00F04FF99448924B944AE7
:104A9000944900909448FFF7C9FE8F48007800F0D1
:104AA0000100002846D091480078E8BB012141F27E
:104AB000883001F03DFBDFED8E0A9FED8E0A8E4AB5
:104AC00001218E4800F00AFD854A86498C48FDF791
:104AD000EDFB8C4B1A1F111F894804F025FA814801
:104AE00090ED000A884880ED000A884880ED000AB1
:104AF000874880ED000A7B4890ED010A824880EDEE
:104B0000010A824880ED010A814880ED010A75485A
:104B100090ED020A7C4880ED020A7C4880ED020A92
:104B20007B4880ED020A00E005E070480078401CF8
:104B30006E490870BDE0754890ED000A744880ED3C
:104B4000000A714890ED000A704880ED000A90ED6F
:104B5000000A7048D0ED000A20EE200A6C48D0ED23
:104B6000000A6C4890ED011A00EE810A5D48D0ED14
:104B7000000A684890ED021A00EE810A624880ED52
:104B8000000A624890ED010A614880ED010A5E4822
:104B900090ED010A5D4880ED010A90ED010A5D4843
:104BA000D0ED000A20EE200A5948D0ED010A5948FC
:104BB00090ED011A00EE810A4A48D0ED010A5548ED
:104BC00090ED021A00EE810A4F4880ED010A4F482D
:104BD00090ED020A4E4880ED020A4B4890ED020A21
:104BE0004A4880ED020A90ED020A4A48D0ED000AD8
:104BF00020EE200A4648D0ED020A464890ED011A00
:104C000000EE810A3748D0ED020A424890ED021AC0
:104C100000EE810A3C4880ED020A314B02463249DF
:104C20009FED3D0A3648FDF7B9FC364B1A1F111FA0
:104C3000334804F079F923480068D0F8FC000128D3
:104C400024D13648008841F2883188420CDA344851
:104C5000007870B304F00CFF1F4802782F4B2249F4
:104C6000304804F029FD24E02C48008841F28831C6
:104C700088421ED103F048F804F004FF274800885A
:104C8000401C2649088006F03DFA12E00D480068F5
:104C9000D0F8FC00022804D00A480068D0F8FC00D4
:104CA00038B904F0EFFE41F289301C49088006F063
:104CB00029FA0948D0ED040AB0EE600AFFF74CFE6D
:104CC000CFE6000060010020EC00002070300120E1
:104CD00044F000080050014088300120A830012035
:104CE000F0310120E4310120D8310120650100209C
:104CF0000080894500A08C455CF000081832012036
:104D00000832012004320120783201206C32012067
:104D10006032012068F000086F12833A5C010020C5
:104D200064010020B83001200020324991ED040ACE
:104D3000BDEEC00A304981ED000A0968142902DA83
:104D400014212D4A11602C490968282902DD2821E7
:104D5000294A116028490968C1F1280027490988B2
:104D6000E1B900EB4001264A02EB810191ED000A16
:104D7000244981ED000A00EB400102EB810191ED35
:104D8000010A204981ED010A00EB400102EB81019B
:104D900091ED020A1B4981ED020A29E017490988B1
:104DA00041F2883291421CD1164991ED000A00EB84
:104DB0004001134A02EB810181ED000A114991ED96
:104DC000010A00EB400102EB810181ED010A0D496E
:104DD00091ED020A00EB400102EB810181ED020A34
:104DE00006E00649098841F28832914200DD7047A9
:104DF00000BFFCE788300120680100205C01002032
:104E0000DC300120B83001202DED028B82B004F09F
:104E10001BFE002004F00CF804F07AF9C449086085
:104E200004F070F9C349086004F058F8C2490860FA
:104E300004F072F9C149086006F022F9C04908601F
:104E400004F06EF9BF49086004F05AF8BE490860E2
:104E500004F05AF8BD49086004F06AF9BC490860DA
:104E600004F062F9BB49086004F066F9BA490860C9
:104E70005CE1002003F0F4FF062004F013F8B749CA
:104E8000088008460088002807DD08460088642856
:104E900003DC0020B24908703EE0B0480088B0F55D
:104EA000FA6F08DBAD480088B0F5166F03DC02200E
:104EB000AB49087030E0A948008840F65431884278
:104EC00009DBA648008840F61C41884203DC032029
:104ED000A349087020E0A1480088B0F52F7F08DBC7
:104EE0009E480088B0F57A7F03DC04209C49087056
:104EF00012E09A48008840F2DC51884208DB97486B
:104F00000088B0F5E16F03DC05209549087003E0E7
:104F10009348007892490870002004F0D7FF904829
:104F20000078D8BB03F0E2FF10EE104A204609F0EB
:104F30007FFE41EC180B8DED008B8AA20121084603
:104F400005F0C2F87C48006890ED000A10EE101AD7
:104F5000084609F06DFE41EC180B8DED008B84A224
:104F60000121022005F0B0F87348006890ED020AB4
:104F700010EE101A084609F05BFE41EC180B8DED9F
:104F8000008B7EA20121032005F09EF87E48036875
:104F90007EA20121042005F097F8C2E0FFE77048E7
:104FA0000078022834D16648006890ED9F0A10EE20
:104FB000101A084609F03CFE41EC180B8DED008BF1
:104FC00075A20121084605F07FF85D48006890ED64
:104FD000A30A10EE101A084609F02AFE41EC180B3D
:104FE0008DED008B70A20121022005F06DF856486E
:104FF0000068837970A20121032005F065F8534809
:10500000006883796FA20121042005F05DF888E033
:1050100053480078032812D149480068B0F89C3200
:105020006BA20121032005F04FF805F0F7FF0446BD
:1050300023466CA20121042005F046F871E048489F
:10504000007804281BD142480068B0F90C306AA2ED
:105050000121084605F038F83D480068B0F90E30E7
:1050600067A20121022005F02FF839480068B0F945
:10507000103065A20121032005F026F851E03848E0
:105080000078052848D13448006890ED070A10EEF2
:10509000101A084609F0CCFD41EC180B8DED008B81
:1050A0005BA20121084605F00FF82B48006890ED3F
:1050B000050A10EE101A084609F0BAFD41EC180B6B
:1050C0008DED008B56A20121022004F0FDFF214846
:1050D000006890ED070A10EE101A084609F0A8FDC6
:1050E00041EC180B8DED008B51A20121032004F03F
:1050F000EBFF1848006890ED050A10EE101A0846FC
:1051000009F096FD41EC180B8DED008B4CA20121AE
:10511000042004F0D9FF04E04DA20121022004F094
:10512000D3FF04F0FDFF322007F04AF9A1E60000AA
:10513000B8000020BC000020C4000020C8000020EF
:10514000CC000020D0000020D4000020D800002097
:10515000DC000020E0000020E4000020E800002047
:10516000EA00002074656D70203A2566000000009A
:1051700079617720203A2566000000007069746329
:10518000683A2566000000003804004070776D2002
:10519000203A2564000000006269675F6D6F746FDC
:1051A000725F4C3A253466006269675F6D6F746F99
:1051B000725F523A2534660074656D704C3A25660C
:1051C0000000000074656D70523A25660000000012
:1051D00070776D5F7365742020202020203A25644D
:1051E0000000000064756275675F70776D5F7365BE
:1051F000743A256400000000783A2564000000003D
:10520000793A2564000000007A3A25640000000025
:105210007961775F73657420203A25346600000059
:105220007961772020202020203A25346600000074
:1052300070697463685F7365743A256600000000E6
:105240007069746368202020203A25660000000001
:105250006572726F7200000000BFFEE770470000C9
:1052600070B5002100230F22C4781CB3174C2468AA
:1052700004F4E064C4F5E064C4F30721C1F104045C
:10528000E3B20A4144789C40E1B28478144021435F
:105290000C07210E0E4C05786155047804F01F05AB
:1052A0000124AC4005786D11AD0005F1E025C5F88D
:1052B000004109E0047804F01F050124AC40054DCD
:1052C0000678761145F8264070BD00000CED00E030
:1052D00000E400E080E100E002490143024A11607D
:1052E000704700000000FA050CED00E0B0EE401A37
:1052F00010B99FED790A704790ED100A80ED110A00
:1053000090ED0F0A80ED100AC0ED060A80ED071A35
:1053100030EEC10A80ED0F0A0178002975D190EDB9
:10532000010AD0ED0F1A20EE210A80ED090A90ED56
:105330000A0AD0ED021A90ED0F2A01EE820A80EDE2
:105340000A0A90ED0D0A80ED0E0A90ED0C0A80ED30
:105350000D0A90ED0F0AD0ED101A30EE610A80EDC3
:105360000C0A90ED030AD0ED0C1A20EE210A80ED14
:105370000B0A90ED0A0AD0ED051AB4EEE10AF1EE3F
:1053800010FA04DD90ED050A80ED0A0A10E090EDB8
:105390000A0AD0ED051AF1EE611AB4EEE10AF1EE57
:1053A00010FA05D290ED050AB1EE400A80ED0A0A26
:1053B00090ED090AD0ED0A1A30EE210AD0ED0B1A51
:1053C00030EE210A80ED080A90ED080AD0ED041AAB
:1053D000B4EEE10AF1EE10FA04DD90ED040A80ED7E
:1053E000080A76E090ED080AD0ED041AF1EE611A91
:1053F000B4EEE10AF1EE10FA6BD290ED040AB1EED0
:10540000400A80ED080A64E0FFE70178012960D1D5
:1054100090ED0F0AD0ED101A30EE610AD0ED011AAE
:1054200020EE210A80ED090A90ED020AD0ED0F1A54
:1054300020EE210A80ED0A0A90ED0D0A80ED0E0A99
:1054400090ED0C0A80ED0D0A90ED0F0AD0ED101AC8
:10545000B0EE002A02EE610AD0ED111A30EE210AF8
:1054600080ED0C0A90ED030AD0ED0C1A20EE210A13
:1054700080ED0B0A90ED090AD0ED0A1A30EE210AF0
:10548000D0ED0B1A30EE210AD0ED081A30EE210AC9
:1054900080ED080A90ED080AD0ED041AB4EEE10A96
:1054A000F1EE10FA04DD90ED040A80ED080A10E038
:1054B00090ED080AD0ED041AF1EE611AB4EEE10A9B
:1054C000F1EE10FA05D290ED040AB1EE400A80ED3B
:1054D000080A90ED080A0EE70000000000B102B9CA
:1054E0007047017092ED001A80ED011A92ED011AD9
:1054F00080ED021A92ED021A80ED031A80ED040A83
:10550000C0ED050A9FED0C1A80ED0E1A80ED0D1A04
:1055100080ED0C1A9FED081A80ED081A80ED0B1A29
:1055200080ED0A1A80ED091A80ED111A80ED101A2B
:1055300080ED0F1A00BFD3E70000000029B1064A32
:1055400012680243044B1A6004E0034A1268824363
:10555000014B1A60704700003038024029B1064AFA
:1055600012680243044B1A6004E0034A1268824343
:10557000014B1A60704700004038024029B1064ACA
:1055800012680243044B1A6004E0034A1268824323
:10559000014B1A60704700002038024029B1064ACA
:1055A00012680243044B1A6004E0034A1268824303
:1055B000014B1A60704700004438024029B1064A86
:1055C00012680243044B1A6004E0034A12688243E3
:1055D000014B1A607047000024380240F0B50021EA
:1055E00000220024022500260223324F3F6807F0E4
:1055F0000C0121B1042905D0082937D105E02E4F2F
:10560000076036E02D4F076033E02A4F3F1F3F68A9
:10561000C7F38056274F3F1F3F6807F03F036EB127
:10562000264FB7FBF3F7DFF88CC0ACF1040CDCF8C5
:1056300000C0CCF3881C07FB0CF40CE01E4FB7FB3A
:10564000F3F7DFF870C0ACF1040CDCF800C0CCF369
:10565000881C07FB0CF4174F3F1F3F68C7F3014737
:105660007F1C7D00B4FBF5F7076002E0124F076076
:1056700000BF00BF0F4F3F6807F0F0010909104F4E
:105680007A5C0768D74047600A4F3F6807F4E051EB
:10569000890A0B4F7A5C4768D7408760054F3F689F
:1056A00007F46041490B064F7A5C4768D740C760F2
:1056B000F0BD0000083802400024F400001BB700D1
:1056C0001800002070B590B004460E461546012122
:1056D0004A48FFF733FF01211020FFF75FFF012148
:1056E0001020FFF76BFF00211020FFF767FF072254
:1056F00011464348FEF77CFF80200E9002208DF873
:105700003C0000208DF83E0003208DF83D00002075
:105710008DF83F000EA93A48FEF722FF394801F004
:10572000F9F839480A900020ADF82C00ADF82E00A9
:105730004FF48060ADF830000420ADF83200002056
:10574000ADF834000AA92F4801F0B8F90122402130
:105750002C4801F0D6F810212A4801F0BDF80122AA
:1057600040F22441274801F084F90121254801F045
:10577000BCF825208DF83C0004208DF83D00002069
:105780008DF83E0001208DF83F000FA8FFF768FD5F
:105790001E48FDF7D1FF4FF0006001901948001D31
:1057A0000290039400200490059506904FF48060C9
:1057B00007900020089009904FF480700A904FF4F1
:1057C00040300B9000200C900D900E900F9001A98E
:1057D0000E48FEF7CDF8002231460C48FEF763F87C
:1057E00001210A48FEF754F800210848FDF798FF08
:1057F00001210648FDF794FF10B070BD0200400083
:105800000004024000100140A086010040640240F4
:1058100000B101B970470278437842EA0322C2F32B
:105820000A020A804278D210837842EA4312C2F315
:105830000A024A8082789211C37842EA830203798D
:1058400042EA8322C2F30A028A8002795210437923
:1058500042EAC312C2F30A02CA804279C2F30112B9
:105860008A72427912119308CB728279C37942EA23
:10587000032212B28A81027A437A42EA032213B2E5
:1058800001F10C02CB81827AC37A42EA032213B27D
:1058900001F10C020B82037B8B74437BCB74827B04
:1058A000C37B42EA03228A82027C437C42EA0322CF
:1058B00012B20A810A88A2F5806212B20A804A886E
:1058C000A2F5806212B24A808A88A2F5806212B282
:1058D0008A80CA88A2F5806212B2CA800A89A2F5BB
:1058E000806212B20A8100BF94E7000000B587B061
:1058F00001210320FFF722FE01210803FFF74EFEDE
:105900001820059002208DF8180000208DF81A004C
:105910008DF81B0003208DF8190005A92B48FEF710
:105920001FFE8020059005A92948FEF719FE4FF4B7
:10593000C060059001208DF8180000208DF81A0035
:105940008DF81B0003208DF8190005A91F48FEF7EC
:1059500007FE052203211D48FEF74AFE0522042109
:105960001A48FEF745FE052207211948FEF740FEBA
:1059700001210803FFF722FE00214FF48050FFF7BA
:105980001DFE0020ADF800004FF48270ADF802005B
:105990000020ADF80400ADF80600ADF808004FF4A3
:1059A0000070ADF80A000020ADF80C00ADF80E0054
:1059B0000A20ADF810006946064800F05EF90121A2
:1059C000044800F037F907B000BD000000040240B1
:1059D000000002400030014000B587B001212020C6
:1059E000FFF7ACFD01210805FFF7D8FD4FF460700B
:1059F000059002208DF8180000208DF81A00012073
:105A00008DF81B0003208DF8190005A92048FEF72A
:105A1000A7FD052207211E48FEF7EAFD0522082101
:105A20001B48FEF7E5FD052209211948FEF7E0FDB8
:105A300001210805FFF7C2FD00214FF48010FFF798
:105A4000BDFD0020ADF800004FF48270ADF80200FB
:105A50000020ADF804000220ADF806000120ADF8EA
:105A600008004002ADF80A003820ADF80C00002014
:105A7000ADF80E000720ADF810006946054800F0AB
:105A8000FCF80121034800F0D5F807B000BD000084
:105A900000140240005001400A4A12884FF2C773B6
:105AA0001A40084B1A801A46128802431A801A4676
:105AB00012880A431A801A46128842F040021A805D
:105AC000704700000050014010B5044600211848FE
:105AD000FDF726FE002116481830FDF721FE00BF15
